:020000040800F2
:1000000068100020010100083B2D00088125000830
:10001000392D000849030008613C00080000000079
:100020000000000000000000000000007D36000815
:10003000D3060008000000003D2D0008C736000868
:100040001B0100081B0100081B0100081B01000820
:100050001B0100081B0100081B0100081B01000810
:100060001B0100081B0100081B0100081B01000800
:10007000610600086D06000879060008850600087C
:10008000910600089D0600081B0100081B010008DE
:10009000553C00081B0100081B0100081B0100085B
:1000A0001B0100081B0100081B0100081B010008C0
:1000B000613700086D3700081B0100081B010008AC
:1000C0001B0100081B0100081B0100081B010008A0
:1000D0001B010008193C0008253C00083D3C0008B5
:1000E0001B0100081B0100081B010008DFF80CD0F1
:1000F00000F03CF800480047E93E00086810002086
:100100000648804706480047FEE7FEE7FEE7FEE7B1
:10011000FEE7FEE7FEE7FEE7FEE7FEE71937000829
:10012000ED00000840EA01039B0703D009E008C97D
:10013000121F08C0042AFAD203E011F8013B00F8AC
:10014000013B521EF9D27047D2B201E000F8012BF8
:10015000491EFBD270470022F6E710B513460A4647
:1001600004461946FFF7F0FF204610BD064C074D28
:1001700006E0E06840F0010394E807009847103477
:10018000AC42F6D3FFF7B6FFEC4D00080C4E00086A
:1001900010B502211D4802F0E5FD1C48032118306E
:1001A00002F0E0FD19480421303002F0DBFD174871
:1001B0000121483002F0D6FD144800220221883087
:1001C00003F072F81148002203219C3003F06CF810
:1001D0000E4800220421B03003F066F80B480022DC
:1001E0000121C43003F060F808480321603002F0B8
:1001F00063FE03F041F900F009F9054803F06AFBDA
:10020000BDE81040034803F05BBB0000CC070020B2
:100210008D3800087D3800088AB0FFF7B9FF4349E0
:100220000DF1080C888A0B8A84B2A1F148009BB2B8
:10023000828A058A92B2CDE90632ADB2059508945C
:100240008A89058994B28289ADB293B20A890195EF
:1002500092B28CE81C008A8892B200928288098847
:1002600093B200888AB281B2314802F03FFE192170
:10027000002003F015FD2D4C10250026643C4FF4A2
:10028000167800951E2104236279084602F0D2FAFE
:1002900000950223E2781E21462002F0CBFAE07896
:1002A0000228EED3A0780021401CA070084603F07D
:1002B000F7FC4FF4FA77384600F04EFF0F2100208C
:1002C00003F0F8FC384600F047FFA078012807D17A
:1002D0000220A07003F048FD4FF4E16000F03CFF05
:1002E000A078052815D1012003F028FD404600F034
:1002F00033FF0021084603F0D3FCE670A078401CD1
:10030000A07003F02FFE4FF4FA6000F025FF0120EB
:100310002071012003F012FD404600F01DFF142162
:10032000002003F0BDFCE670ABE70000A800002051
:100330002C08002002F002BB02F0FAB80148406A23
:1003400070470000D8000020FEE700002DE9F047CC
:10035000DFF8B080DFF8B0900546002707EB4706CE
:1003600008EBC604EA68E16891423BD1606938B1A4
:10037000A97818F83600B1EB101F33D100200CE03B
:1003800018F8360000092DD0687848B92AE02918F5
:100390006269C9781154401CC0B2A9788142F6D86C
:1003A000E86800F099F92069414618B911F836005B
:1003B000000717D031F83600C0F3413222B1012ACC
:1003C00008D0022A0ED113E0A188B9F80200401A21
:1003D000E08007E0C0F34122022A03D140F4C0606C
:1003E00028F836007F1CFFB2282FB7D3BDE8F0876E
:1003F00020F4C06040F4807000F5007028F83600EA
:10040000E2E70000A4080020C0000020054910B564
:100410004FF4FA60488002F0B5F8BDE81040FFF7ED
:100420008BBF0000C00000202DE9FF47684600F0A8
:10043000EBF810B16846FFF789FF654C607850B162
:1004400032226188A08803F002FA002801D000203F
:100450006070BDE8FF8700F03EF9DFF87881002783
:100460004FF000594FF0805A07EB470638F8360036
:10047000C1057FD5424610F4C05F04D0C0F3C1204F
:1004800001281FD076E0C0F34121012904D00229C0
:100490000CD003290DD06DE007EB470002EBC0053F
:1004A000174628462AE06088E88068E008EBC60521
:1004B00037E002EBC60320F4C060598821F4FE71D6
:1004C000598055E008EBC6056188AA88E88803F0E2
:1004D000BEF928B138F83600C0F34120012808D011
:1004E00038F83600C0F3412102291AD0032935D04B
:1004F00040E007EB4700474608EBC00003F0BFF8B9
:100500006888C0F382110529CDD237F83610C1F3BF
:1005100041210129C7D109EB70204FEAF0506880D2
:10052000C1E7688820F4E0706880AA88E88861885C
:1005300003F08DF9F0B138F8361021F4C06101F5FF
:10054000007128F836106888C0F383010A2911D297
:100550000AEBB0104FEAB06068800BE0698820F4C5
:10056000C06021F4FE7169806188E98000F5007047
:1005700028F836007F1CFFB2282FFFF475AF002546
:100580002E46474606EB460007EBC0014888C0F3FD
:100590008212052A04D320F4E07045F00205488059
:1005A000FFF7CCFE08B145F004055DB1FFF7C2FED0
:1005B000FFF7C2FE6088A080012060702078284389
:1005C000207046E7761CF6B2282EDBD3F6E7000053
:1005D000C0000020A408002030B587B014460A9A55
:1005E0001D46082A00D90822019002910090CDE909
:1005F000034206AB2A466946024800F080F807B07D
:1006000030BD0000D800002030B50B490A784B7887
:100610009A4201D1002030BD01EB0212121D3CCAEA
:1006200080E83C0008781422401CB0FBF2F302FB87
:1006300013000870012030BD88060020074A00EB37
:10064000400132F8310010F4C05F05D120F4C060E1
:1006500000F5007022F8310070470000A408002067
:10066000014800F069BC000044040020014800F08B
:1006700063BC000000040020014800F05DBC0000E5
:1006800034030020014800F057BC0000F0020020B5
:10069000014800F051BC000078030020014800F040
:1006A0004BBC0000BC03002030B590F84050012442
:1006B000AC40C56B6C60046863604368102B0368D2
:1006C00003D099600068C26030BD9A600068C16064
:1006D00030BD704770477047704790F82020012A5E
:1006E00007D0022A05D0416A41F4802141620120ED
:1006F0007047006842690A43426100207047F0B5C4
:1007000090F820500468A468012D05D0022D03D074
:10071000416A41F4802153E014F0406F01D1E500BB
:100720004BD5C4F30164022C03D9416A41F40001A2
:1007300046E00125A5401D608D684FF4C0739DB152
:10074000CE6835434E6845EAC605066803EB0417D4
:10075000F5514FF4C275076805EB04150E697E511B
:10076000097D012905D009E00E88CD6845EA465586
:10077000EBE701684E5946F480764E511179D2F874
:1007800005504FF4C67641EA0525016806EB0416CC
:100790008D511178D2F801204FF4C47541EA02213D
:1007A000026805EB04155151006803EB041142582F
:1007B00042F0010242500020F0BD416A41F40011B4
:1007C00041620120F0BD000010B590F820300268B1
:1007D000012B07D0022B05D0416A41F480214162F0
:1007E000012010BDD2F8000240F00100C2F8000262
:1007F000087D00F01F0301209840D2F81C3283438B
:10080000C2F81C32CB69B3B9D2F80C328343C2F8B8
:100810000C328C894B6864F31F434C6902EBC404AF
:10082000C4F840320C890B6864F31F434C6902EB37
:10083000C404C4F84432CB69012B16D1D2F80C326F
:100840000343C2F80C320C884B6864F31F434C69B5
:1008500002EBC404C4F840320C89CB6864F31F4334
:100860004C6902EBC404C4F844328B69002BD2F803
:1008700004320FD053EA0003C2F804320B69002B94
:10088000D2F8143208D00343C2F81432096A01299D
:1008900004D008E08343EFE78343F5E7D2F81C1266
:1008A0000143C2F81C12D2F8000220F00100C2F885
:1008B0000002002010BD704730B590F82040012C98
:1008C00005D0022C03D0416A41F480215DE0046828
:1008D000002955D02469A40754D04FF4D874056872
:1008E00004EB01142D5915F00405956005682D5988
:1008F0004ED0ED08556005682C5904F00204D46010
:100900004FF4DA74056804EB01142D5905F00F0556
:10091000156105682D59C5F30725956105682C59A2
:10092000240C54614FF4DC72046802EB0112A458E9
:100930001C700468A458240A5C700468A458240C31
:100940009C700468A258120EDA704FF4DE720468CC
:1009500002EB0112A4581C710468A458240A5C71AB
:100960000468A458240C9C710468A258120EDA7111
:10097000006881B1016941F020010161002030BDB2
:10098000E468A8E7416A41F400114162012030BDEA
:100990006D0D1560AFE7C16841F02001C160EDE762
:1009A0002DE9F05F0546006800244669D0F8049000
:1009B0008768D0F80CB0D0F810A0D0F81880F107F4
:1009C00048D0F90714D001218160B80703D5284623
:1009D00000F03DFA0CE0780702D54FF4006407E020
:1009E000380702D54FF4805402E0284600F02EFA72
:1009F000F80516D529684FF480708860B80503D5CE
:100A0000284600F026FA0CE0780502D544F400549C
:100A100007E0380502D544F4804402E0284600F09F
:100A200017FAF80316D529684FF480308860B803A8
:100A300003D5284600F00FFA0CE0780302D544F401
:100A4000004407E0380302D544F4803402E028462D
:100A500000F000FA300707D55FEACB6004D52968BB
:100A6000102044F40074C86070074FF0080707D5E1
:100A70005FEA0B7004D52868C760284600F066F965
:100A8000B00706D52868C068800702D0284600F065
:100A90005FF9700607D55FEACA6004D5296810209F
:100AA00044F480640861B00607D55FEA0A7004D593
:100AB00028680761284600F099F9F00606D52868ED
:100AC0000069800702D0284600F091F9B00308D5EC
:100AD0005FEAC96005D5296810204860284600F003
:100AE00087F9F00307D55FEA097004D528684760E5
:100AF000284600F0B1F9300446D55FEA497040D588
:100B0000F00504D55FEAC87001D044F00104B005D7
:100B100004D55FEA887001D544F00204700504D55D
:100B20005FEA487001D544F00404300529D518F077
:100B3000700F26D008F07000402815D006DC102871
:100B400009D020280AD0302816D10AE050280ED02B
:100B5000602811D10EE044F008040DE044F01004C8
:100B60000AE044F0200407E044F0400404E044F0CC
:100B7000800401E044F480742868816921F07001E8
:100B80008161296804204860002C05D0686A2043F0
:100B900068622846FFF78FFEBDE8F09F70B504003D
:100BA00003D094F8200010B104E0012070BD20466D
:100BB00000F082F82068016821F00201016000F075
:100BC000D3FB0546052604E000F0CEFB401B0A28B7
:100BD00011D8206840688007F6D42068016841F089
:100BE0000101016000F0C0FB05460BE000F0BCFB1A
:100BF000401B0A2806D9606A40F40030606284F81D
:100C00002060D2E720684068C007EFD0207E01282E
:100C1000206801683DD021F080010160607E0128DC
:100C20002068016838D021F040010160A07E0128D1
:100C30002068016833D021F020010160E07E0128A6
:100C4000206801682ED041F010010160207F01284A
:100C50002068016829D021F008010160607F012827
:100C60002068016824D021F004010160D4E9020168
:100C70000843D4E90412114308436168491E08433C
:100C80002168C86100206062012084F820000020F3
:100C900070BD41F08001C0E741F04001C5E741F07F
:100CA0002001CAE721F01001CFE741F00801D4E7A5
:100CB00041F00401D9E7000010B586B00021009191
:100CC00001910291039100681C49884233D11C486C
:100CD000C16941F00071C161C16901F00071049105
:100CE000816941F0080181618069164C00F00800BB
:100CF00004904FF4807000906946204600F03EFA60
:100D00006015009002200190032003906946204660
:100D100000F034FA0C48416821F4C04141F0E06130
:100D200041F48041416000221146142000F088FB0C
:100D3000142000F077FB06B010BD000000640040F6
:100D400000100240000C014000000140704700000C
:100D5000F0B58DB00BAB04AA0021FFF7ADFD002864
:100D600033D106980799C0B28DF800008DF80110B4
:100D700008998DF8021004280ED0049803900020E2
:100D80000BAB02464FEA0D019DF80240844205D9A3
:100D90000D181C5CEC7003E00598EFE70C18E2708E
:100DA000401CC0B20828EFD30F4814269DE83C0031
:100DB00041784F1CB7FBF6FC06FB1C7790F800C08F
:100DC000674504D1684601F0BAFF0DB0F0BD00EBF5
:100DD0000111091D81E83C004178491CB1FBF6F284
:100DE00006FB12114170F0E788060020704770473B
:100DF0007047000070B5044690F82000012804D028
:100E0000606A40F40020606218E0022084F820004C
:100E10002068016821F00101016000F0A5FA054693
:100E20000EE000BF00F0A0FA401B0A2808D9606A53
:100E300040F400306062052084F82000012070BD7D
:100E400020684068C007EDD1606270BD7047704790
:100E50007047704770477047704710B590F8211081
:100E60000022022905D00421816380F8202001207E
:100E700010BD01680B6823F00E030B6001680B685E
:100E800023F001030B6090F84030C46B012101FA9C
:100E900003F3636080F8211080F82020104610BD15
:100EA00010B590F821100024022903D00421816399
:100EB00001243DE001680A6822F00E020A60016820
:100EC0000A6822F001020A601A4A0168914201D1BF
:100ED000012121E0174A1432914201D110211BE077
:100EE000144A2832914201D1891515E0114A3C3249
:100EF000914201D189140FE00E4A5032914202D141
:100F00004FF4803108E00B4A6432914202D14FF431
:100F1000801101E04FF08071064A083A51600121CA
:100F200080F82110002180F82010416B01B1884722
:100F3000204610BD080002402DE9F05FC16B0C682F
:100F400001680B68D0F840C0042202FA0CF2494D47
:100F5000DFF824A1494E4A4FDFF828B1DFF828E135
:100F600022422CD05A072AD50A68920603D40A686E
:100F700022F004020A600168A94201D1042219E0AA
:100F8000514501D1402215E0B14202D14FF48062B7
:100F900010E0B94202D14FF480420BE0594502D132
:100FA0004FF4802206E0714502D14FF4800201E047
:100FB0004FF080622F4908394A60C16A3BE04FF028
:100FC000020808FA0CF818EA040F4FF000094FF075
:100FD000010235D05FEA837832D50B689B0605D4D1
:100FE0000B6823F00A030B6080F821200168A942F6
:100FF00001D1022219E0514501D1202215E0B14270
:1010000002D14FF4007210E0B94202D14FF4005205
:101010000BE0594502D14FF4003206E0714502D190
:101020004FF4001201E04FF00072124908394A6093
:1010300080F82090816A00291AD0BDE8F05F084747
:10104000082505FA0CF5254212D01B0710D50B68B0
:1010500023F00E030B6090F84010C36B02FA01F10D
:101060005960826380F8212080F82090016BE2E7CC
:10107000BDE8F09F080002401C0002403000024022
:1010800044000240580002406C00024030B528B3D2
:1010900008C8134914221944B1FBF2F18900C16355
:1010A00010498163022141771A6843F6F0718A433F
:1010B000D0E900142143D0E902452C4321430469BF
:1010C000214344692143846921431143196000216C
:1010D0004163012242770177084630BD012030BDCF
:1010E000F8FFFDBF0000024070B5044690F82000F4
:1010F000002501280CD0012084F8200094F82160FC
:101100000020012E06D084F820000225284670BD5C
:10111000022070BD022684F82160A0632068066862
:1011200026F0010606602046FFF7BEFAE06A0028B6
:101130002068016802D041F00E0106E021F00401B0
:1011400001602068016841F00A01016020680168BF
:1011500041F001010160D9E770B5044600F004F9DF
:101160000546601C02D004480078044400F0FCF8F6
:10117000401BA042FAD370BD000000202DE9F84FBB
:10118000DFF8B891002409F1040A0AF1040B2346A0
:101190000F270BF1040EC9E00125A5402A40AA4201
:1011A0007DD1674ED1F804C0ACEB0608B44532D00F
:1011B00014DCBCF1030F3AD009DCBCF1000F2AD0DB
:1011C000BCF1010F1CD0BCF1020F31D11DE0BCF10C
:1011D000110F17D0BCF1120F2AD119E0B8F5881FF2
:1011E00019D006DCB8F5803F15D0B8F5801F1FD1A7
:1011F00011E0B8F5001F0ED0B8F5041F18D10AE0B1
:10120000CB6815E0CB681B1D12E0CB6808330FE0FC
:10121000CB680C330CE08B682BB1012B4FF008032B
:1012200003D0456104E0042302E0056100E00023EF
:10123000FF2A01D8064601E000F104064FEA8405C2
:1012400001D9A5F12005D6F8008007FA05FC28EAA7
:101250000C0803FA05F548EA0508C6F800804D6851
:10126000ED0062D5374DAE6946F00106AE61AD695D
:1012700024F0030605F001050095334D06EB050C3F
:10128000DCF80850A607360F07FA06F825EA080525
:10129000DFF8B880404503D14FF0000817E044E084
:1012A000DFF8AC80404502D14FF001080FE0DFF8D5
:1012B000A480404502D14FF0020808E0DFF8988092
:1012C000404502D14FF0030801E04FF0040808FA4E
:1012D00006F848EA0508CCF808804D68D9F800609F
:1012E000ED034D4601D5164300E096432E604D6850
:1012F000DAF80060AD03554601D5164300E0964389
:101300002E604D68DBF80060ED025D4601D51643A6
:1013100000E096432E604D68DEF80060AD02754631
:1013200001D5164300E096432E60641C0D682A46E2
:10133000E5407FF431AFBDE8F88F000000040140C4
:1013400000001110001002400000014000080140A0
:10135000000C014000100140001401400AB101617D
:1013600070470904FBE700000148806870470000EF
:1013700000000020024881680278114481607047B3
:1013800000000020074810B5016841F0100101601D
:10139000032000F075F8002000F006F800F024F8B3
:1013A000002010BD0020024070B50D4D04464FF4E2
:1013B0007A712878B1FBF0F00A490968B1FBF0F0C6
:1013C00000F034FC48B9102C07D200222146501EF0
:1013D00000F036F800206C6070BD012070BD000088
:1013E000000000200C0000200C4808B5816941F085
:1013F00001018161816901F001010091C16941F040
:101400008051C161C06900F080500090044841687B
:1014100021F0E06141F00071416008BD0010024020
:1014200000000140002809DB00F01F02012191406B
:101430004009800000F1E020C0F800117047000072
:10144000F0B40E4B1B680C46C3F30223C3F107052F
:10145000042D00D90425191D072901D2002300E01D
:10146000DB1E012606FA05F1491E214099409E40E7
:10147000761E16403143F0BC02F0F3BB0CED00E0E9
:10148000064900F0070208684FF6FF03184040EADB
:101490000220034A10430860704700000CED00E092
:1014A0000000FA052DE9F0470F46050061D0434ED4
:1014B000306800F00700B84209D2306820F0070019
:1014C00038433060306800F00700B84251D12868D6
:1014D0003B4C810712D5400703D5606840F4E060BB
:1014E00060602878000703D5606840F46050606051
:1014F0006068A96820F0F000084360602878C007A1
:1015000028D06868012810D02168022810D08907E7
:1015100000292EDA616821F0030101436160FFF7C1
:1015200023FF804641F288390DE021688903EFE707
:101530008901EDE7FFF718FFA0EB0801494502D943
:101540000320BDE8F0876068696800F00C00B0EB2C
:10155000810FEFD1306800F00700B8420BD9306836
:1015600020F0070038433060306800F00700B842D0
:1015700001D00120E5E72878400705D56068E968D3
:1015800020F4E060084360602878000706D56068B2
:10159000296920F4605040EAC100606000F038F82A
:1015A0006168084AC1F30311515CC84006490860EC
:1015B00006480068FFF7F8FE0020C2E7002002405E
:1015C00000100240304100080C0000200400002000
:1015D0000448054900684968044AC1F30221515C86
:1015E000C84070470C000020001002404041000835
:1015F0000448054900684968044AC1F3C221515CA6
:10160000C84070470C000020001002404041000814
:1016100012A185B00FC98DE80F0014A0144A00680C
:1016200004905168134801F00C03042B10D0082BD0
:101630000ED1C1F38343C9031DF803000AD55168D5
:1016400004AAC1F34041515C0A4A5043B0FBF1F097
:1016500005B0704708494843FAE700000203040553
:10166000060708090A0B0C0D0E0F101001020000EE
:101670000010024000127A0000093D002DE9F84FE9
:10168000040070D02078C04DC00749D06868C0F30E
:101690008100012807D06868C0F38100022809D1C1
:1016A0006868C00306D52868800339D560680028BB
:1016B000E7D035E06068B0F5803F0BD010B1B0F5F1
:1016C000A02F11D0286820F480302860286820F4EA
:1016D000802002E0286840F480302860606890B183
:1016E000FFF742FE06460AE0286840F480202860A2
:1016F000F0E700BFFFF738FE801B642873D8286826
:101700008003F7D50CE0FFF72FFE064605E000BF8B
:10171000FFF72AFE801B6428F0D828688003F7D4DE
:1017200020789A4E80074FF001094FF0000839D514
:10173000686810F00C0F07D06868C0F381000228B9
:1017400009D16868C00306D42868800714D52069C9
:10175000012808D110E02069B0B1C6F80090FFF769
:1017600003FE074605E00AE1FFF7FEFDC01B022865
:10177000C4D828688007F7D52868616920F0F80088
:1017800040EAC10028600DE0C6F80080FFF7ECFDDC
:10179000074604E0FFF7E8FDC01B022823D82868AD
:1017A0008007F7D4207800072CD57948A169D9B1F2
:1017B000C0F80090FFF7D8FD074604E0FFF7D4FD1E
:1017C000C01B02280FD8686A8007F7D571484FF40C
:1017D000FA510068B0FBF1F0009000BF0098411E84
:1017E0000091FAD20EE080E0C0F80080FFF7BCFD67
:1017F000074604E0FFF7B8FDC01B022875D8686AE9
:101800008007F7D42078400760D5E8690027C0003A
:1018100008D4E86940F08050E861E869012700F0E9
:10182000805000905C480168C90513D40168834664
:1018300041F480710160FFF797FD824606E000BF2A
:10184000FFF792FDA0EB0A0064284ED8DBF80000F9
:10185000C005F5D5E06801280AD008B1052813D0E5
:10186000286A20F001002862286A20F0040002E0C3
:10187000286A40F001002862E06841F2883B98B194
:10188000FFF772FD82460BE0286A40F004002862F0
:10189000EEE700BFFFF768FDA0EB0A0159455AD8F3
:1018A000286A8007F6D50CE0FFF75EFD824605E06A
:1018B000FFF75AFDA0EB0A0159454CD8286A80076A
:1018C000F6D41FB1E86920F08050E861E06988B380
:1018D0006968C1F38101022944D00228C6F86080FA
:1018E00004D0FFF741FD044638E034E0FFF73CFD4B
:1018F000074604E0FFF738FDC01B02282BD82868F4
:101900008001F7D4206AB0F5803F05D16868A168EE
:1019100020F4003008436860D4E90801084369688E
:1019200021F4741108436860C6F86090FFF71CFD4D
:10193000044606E025E000BFFFF716FD001B022865
:1019400009D828688001F7D51BE000BFFFF70CFD20
:10195000001B022802D90320BDE8F88F2868800107
:10196000F4D40EE00128F7D06868226A00F48031D0
:10197000914204D1616A00F47010884201D00120C4
:10198000EAE70020E8E700000010024000004242C1
:10199000800442420C0000200070004070B504003A
:1019A00005D00025A56294F8510010B106E0012091
:1019B00070BD84F85050204600F02EF8022084F8C4
:1019C00051002068016821F040010160D4E9010163
:1019D0000843D4E903121143084361690843218B8A
:1019E00001F400710843E1690843216A0843A16AD0
:1019F000084321680860A069042101EA10402168B9
:101A000048602068C16921F40061C16165650120F9
:101A100084F85100002070BD30B585B000240094DA
:101A2000019402940394254D036825480221032262
:101A3000AB421AD1836943F480538361836903F411
:101A400080530493836943F00403836180691D4DCF
:101A500000F004000490A020CDE900010392694643
:101A60002846FFF78BFB40201EE0174DAB4222D1EA
:101A7000C36943F48043C361C36903F4804304939F
:101A8000836943F0080383618069104D00F008000A
:101A900004904FF42040CDE90001039269462846A6
:101AA000FFF76CFB4FF48040CDE9000469462846FF
:101AB0000294FFF763FB05B030BD00000030014029
:101AC000001002400008014000380040000C0140B6
:101AD0002DE9F84F044690F8500000271D461646A1
:101AE000894601280DD04FF0010B84F850B0FFF764
:101AF0003BFC804694F85100BA46012804D00227E6
:101B00008EE00220BDE8F88FB9F1000F7DD0002EE5
:101B10007BD0032084F85100C4F854A0C4F830905E
:101B2000A686E686C4F838A0A4F83CA0A4F83EA097
:101B3000C4F844A0C4F840A0A068B0F5004F04D198
:101B40002068016841F4804101602068016849060D
:101B500003D4016841F040010160E068B0F5006F16
:101B6000606803D030B3012E24D040E008B1012ECC
:101B70001CD1206B21680088C86006E0206881685D
:101B8000890709D5216B0988C160206B801C2063FF
:101B9000E08E401EE08609E0FFF7E6FBA0EB0800C0
:101BA000A84202D3681C01D031E07DB3E08E00284A
:101BB000E4D11FE0206B21680078087306E02068FC
:101BC0008168890709D5216B09780173206B401C56
:101BD0002063E08E401EE08609E0FFF7C5FBA0EB26
:101BE0000800A84202D3681C01D010E075B1E08E55
:101BF0000028E4D142462946204601F0E3FB08B123
:101C000020206065A06820B107E008E0FFE7032717
:101C100006E02068C16880680090606D00B101270F
:101C200084F851B084F850A038466BE710B5401ED8
:101C3000B0F1807F01D3012010BD4FF0E02460613E
:101C40000F21601702F00DF80020A061072020612D
:101C5000002010BD7047704770B590F83C20012AF5
:101C600019D0012400F83C4F0222427050F83C3C4D
:101C70005A689D6822F070060A684968324325F068
:101C8000800529435A6050F83C2C91604470002133
:101C90000170084670BD022070BD10B5040003D06D
:101CA00094F83D0010B107E0012010BD002084F839
:101CB0003C00204600F00CF8022084F83D00211D75
:101CC000206801F059FD012084F83D00002010BD7E
:101CD00008B501681448B1F1804F14D0134A9142FD
:101CE00020D1C16941F00201C161C069002200F048
:101CF0000200009011461D20FFF7A2FB1D20BDE849
:101D00000840FFF78FBBC16941F00101C161C069A3
:101D1000002200F00100009011461C20FFF790FB0C
:101D20001C20ECE708BD0000001002400004004049
:101D30000168CA6842F00102CA600068816801F067
:101D40000701062903D0016841F00101016000206C
:101D5000704770B5044690F83C00012817D0012563
:101D600084F83C50022084F83D002068826822F00C
:101D7000770222F47F4282600868502830D00DDC60
:101D800020284DD005DC98B310283BD148E0022034
:101D900070BD302844D0402834D139E0602828D0A4
:101DA000702806D0B0F5805F2CD0B0F5005F29D147
:101DB0000AE0CB68D1E90121206801F013FD206819
:101DC000816841F0770109E0CB68D1E90121206801
:101DD00001F008FD2068816841F48041816011E0D4
:101DE000CA684968206801F00FFD5021206807E0AB
:101DF00016E0CA684968206801F017FD6021206874
:101E000001F0FAFC84F83D50002084F83C0070BDDD
:101E1000CA684968206801F0F7FC40212068EFE7B4
:101E2000226801461046EBE7704770B5044600682B
:101E300001694FF00005C943890715D4C168C9433A
:101E4000890711D4E91E016101202077206880698B
:101E50008007204602D0FFF7E7FF04E000F098F883
:101E6000204600F096F8257720680169C9434907A4
:101E700017D4C168C943490713D46FF00401016145
:101E8000022020772068806910F4407F204602D02D
:101E9000FFF7CAFF04E000F07BF8204600F079F875
:101EA000257720680169C943090716D4C168C94369
:101EB000090712D46FF0080101610420207720681F
:101EC000C0698007204602D0FFF7AEFF04E000F0B3
:101ED0005FF8204600F05DF8257720680169C94366
:101EE000C90617D4C168C943C90613D46FF01001DD
:101EF0000161082020772068C06910F4407F2046E7
:101F000002D0FFF791FF04E000F042F8204600F015
:101F100040F8257720680169C943C90708D1C1681D
:101F2000C943C90704D1891E0161204600F032F877
:101F300020680169C943090609D4C168C943090673
:101F400005D46FF0800101612046FFF783FE206811
:101F50000169C943490609D4C168C943490605D482
:101F60006FF040010161204600F02CF82068016903
:101F7000C94389060BD4C168C943890607D46FF0E9
:101F8000200101612046BDE87040FFF764BE70BDCE
:101F90007047704708490A68016808488A4201D1B9
:101FA000006804E0064A12688A4203D140680028AB
:101FB00000D0004770470000F00100201C00002006
:101FC000B0010020704710B504460068416994F8DC
:101FD0003920C1F3C011212A0BD151B1416921F03F
:101FE00080014161206B08B1FEF737FF204601F008
:101FF00031FD2068416994F83A20C1F38011222A0A
:102000000BD151B1416921F040014161606B08B1D0
:10201000FEF723FF204601F00FFD002010BD7047A2
:1020200070B5026804461068D168536910F00F0F4C
:1020300051D003F0010501F4907635435DD0C2071D
:1020400005D0CA0503D5E26B42F00102E263420704
:1020500005D5DA0703D0E26B42F00202E2638207A1
:1020600005D5DA0703D0E26B42F00402E26302070F
:1020700005D5DA0703D0E26B42F00802E263E26BB7
:10208000002A34D0800604D5880602D5204601F007
:10209000EAFC20684069E16BC0F3801001F00801A0
:1020A0000143204624D001F0C7FC2068416949065D
:1020B0001AD5416921F040014161606BA0B11B4913
:1020C0004163606BFEF7ECFE002810D0606B416B43
:1020D000BDE87040084783060FD58B060DD5204616
:1020E000BDE8704001F0BFBC2046FFF798FF70BD0F
:1020F000FFF795FF0020E06370BD030606D50B06D1
:1021000004D52046BDE8704001F054BD4006F3D52B
:102110004806F1D5D168204621F04001D160202148
:1021200084F8391000F003FA70BD000099390008F6
:1021300070B5040004D094F83900002510B106E011
:10214000012070BD84F83850204600F023F8242088
:1021500084F839002068C16821F40051C16020462C
:1021600001F0CCFC2068016921F4904101612068F4
:10217000416921F02A0141612068C16841F40051A0
:10218000C160E563202084F8390084F83A0000201B
:1021900070BD00002DE9F04786B00025009501953F
:1021A000029503950446DFF84882D0F800C09148B4
:1021B00002210322904B202780264FF4806A4FF0A3
:1021C0001009C44557D1D0F818C04CF4804CC0F861
:1021D00018C0D0F818C00CF4804CCDF810C0D0F85E
:1021E00018C04CF0040CC0F818C08069039200F0CD
:1021F000040004900802CDE900016946984618469B
:10220000FEF7BCFFCDE900A5694640460295FEF702
:10221000B5FFDFF8EC8179494046C0E90015C0E917
:102220000256C8F81050C8E90557C8F81C50FEF708
:102230002DFF08B1FEF74EFA714FC4F834804437D1
:10224000C8F82440C7E902563D616C487D61BD6114
:102250001438FD61C7E900093846FEF717FF08B1D9
:10226000FEF738FA27630022114625207C62FFF72B
:10227000E7F825205EE0DFF88C81C4455FD1D0F817
:102280001CC04CF4003CC0F81CC0D0F81CC00CF4BE
:10229000003CCDF810C0D0F818C04CF0040CC0F8C9
:1022A00018C08069039200F0040004900420CDE976
:1022B0000001694698461846FEF760FF0820CDE900
:1022C0000005694640460295FEF758FFDFF8308169
:1022D0004A4908F1880840461431C0E90015C0E9B0
:1022E0000256C8F81050C8E90557C8F81C50FEF748
:1022F000CDFE08B1FEF7EEF9414FC4F83480CC377B
:10230000C8F82440C7E902563D613C487D61BD6183
:102310002830FD61C7E900093846FEF7B7FE08B16D
:10232000FEF7D8F927630022114626207C62FFF7CA
:1023300087F82620FFF776F806B0BDE8F087324B25
:102340009C45F9D1C36943F48023C361C36903F495
:1023500080230493836943F0080383618069CDE996
:1023600000A100F00800CDE90320DFF8A080694655
:102370004046FEF703FF4FF40060CDE900056946D3
:1023800040460295FEF7FAFEDFF884801B4940467E
:102390002839C0E90015C0E90256C8F81050C8E94C
:1023A0000557C8F81C50FEF771FE08B1FEF792F908
:1023B000174FC4F834804437C8F82440C7E90256A0
:1023C0003D610E487D61BD613C38FD61C7E9000992
:1023D0003846FEF75BFE08B1FEF77CF92763002262
:1023E000114627207C62FFF72BF82720A2E7000088
:1023F000003801400010024000080140580002402F
:10240000F00200200044004000480040000C014061
:1024100000040020F8B5044690F83A0020283CD18A
:10242000C1B3BAB394F83800012836D0012084F83B
:102430003800A162A2850025E563222084F83A00D5
:10244000636B17489862636B1648D862636B1648D3
:102450001863606B134645630846666B2168024645
:102460003046091DFEF740FE206801684168009172
:1024700084F83850C16841F48071C16020684169B6
:1024800041F0010141612068416941F04001416131
:102490000020F8BDFFE70120FBE70220F9E700007C
:1024A000F33900082F3A0008A939000890F83A30AB
:1024B000202B22D1F9B1F2B190F83830012B1CD089
:1024C00081628285C2850021C163222280F83A2080
:1024D00080F838100168CA6842F48072CA600168E6
:1024E0004A6942F001024A610068C16841F0200176
:1024F000C160002070470120704702207047000033
:1025000010B508490068096888420AD10648406841
:1025100000B18047BDE81040012203490148FFF7A0
:10252000C5BF10BD300200203C000020704770473E
:1025300000B58BB000200121CDE906010590009087
:1025400001900290039004900E20CDE90810694696
:102550000A48FEF739F908B1FEF7BCF80748FEF75C
:1025600049FC08B1FEF7B6F802210448FEF7B5F8B9
:10257000002801D0FEF7AEF80BB000BDD800002057
:10258000FEE7000010B500244FF470710948FDF714
:10259000E2FD0849204600F0D5FB064900F074FE34
:1025A000044900F05FFE034900F076FC282800D9BA
:1025B000FEE710BDA40800200349842200B10120D9
:1025C00088700A704A707047160000200246012089
:1025D00000E05043491EC9B2FBD270472DE9F041DB
:1025E000104E0C460546012204213046FEF7B6FE89
:1025F000B714002239463046FEF7B0FE4FF6FF70A2
:1026000000EA44024FF47A7329460748FFF760FA5C
:10261000012239463046FEF7A1FE04490020088019
:10262000BDE8F081000C014058010020100000209E
:1026300001B50323012269460248FFF749FA002049
:1026400008BD0000580100202DE9FF4F81B08846E9
:10265000DDE90E1504462039C8B2109B0E90914654
:10266000C3464FF0000093B382E00C2D0FD06D48AD
:102670000E9900EB011100BF11F80A7000202646E8
:10268000009038060AD56849A1F8029009E00E9832
:1026900000EB4001654800EB8101EDE762480499D9
:1026A000418061480188408800F004F97806761C72
:1026B000070EB6B2301BA8420AD108F101001FFA7A
:1026C00080F85948801D0178414542D90BE00DE062
:1026D0005548801D017841453BD90098401CC0B247
:1026E00000900828CDD30AF10100C0B28246A8426A
:1026F000BBD340E00C2D20D04A480E9900EB0111CD
:10270000002011F80A7026460090380604D5464885
:102710000188408800F0CEF87806761C070EB6B225
:10272000301BA84210D108F101001FFA80F83E4882
:10273000801D017841450CD917E00E9800EB40014F
:102740003A4800EB8101DBE73748801D417841457D
:1027500005D83549A1F8029005B0BDE8F08F009882
:10276000401CC0B200900828CFD30AF10100C0B2CB
:102770008246A842BED32C4E00200C2D70804FF60E
:10278000FF70B0804FF02A002DD000F0A3F8002099
:1027900000F0BAF8E0B200F0B7F8002000F0B4F8AA
:1027A00004EB5500401EC0B200F0AEF82B2000F044
:1027B00091F8002000F0A8F80BF0FF0000F0A4F85A
:1027C000002000F0A1F80BEB0500401EC0B200F0A5
:1027D0009BF82C2000F07EF8318805B01448BDE845
:1027E000F04FFFF7FBBE00F075F8002000F08CF80A
:1027F000E0B200F089F8002000F086F8E41DE0B2B5
:1028000000F082F82B2000F065F8002000F07CF842
:102810000BF0FF0000F078F8002000F075F80BF1E5
:102820000B00D3E7BC450008100000204841000819
:10283000880400202DE9FF4F83B00026DDF840809A
:102840001D4683463446B2464FEA5807DFF860908B
:1028500029E0281B401EC1B20A20FFF7B7FE0599E8
:10286000B1FBF0F00A21B0FBF1F201FB120026B936
:10287000691E8C4201DA40B101263030C0B28DE8C9
:10288000010507FB04B0494605E020228DE8040558
:1028900007FB04B04946B9F802208B880499FFF77A
:1028A000D3FE641CE4B2AC42D3D307B0BDE8F08FD2
:1028B00010000020054A030A02F8113002EB410122
:1028C000487003490888401C08807047880400202D
:1028D0001000002070B50B4C064600220421204653
:1028E000FEF73CFDA514002229462046FEF736FDE2
:1028F0003046FFF79DFE29462046BDE87040012284
:10290000FEF72CBD000C014070B50B4C06460122B1
:1029100004212046FEF722FDA51400222946204668
:10292000FEF71CFD3046FFF783FE29462046BDE832
:1029300070400122FEF712BD000C0140104810B596
:102940000E4901600921416000214FF4003281608D
:10295000C0E903124FF4401242610176417681765C
:102960000122C27601774177FEF718F9002803D0DB
:10297000BDE81040FDF7AEBE10BD00000064004091
:10298000D80000201D4808B5416941F001014161AE
:102990004069002200F00100009011460C20FEF773
:1029A0004FFD0C20FEF73EFD002211460D20FEF7E4
:1029B00047FD0D20FEF736FD002211460E20FEF7E2
:1029C0003FFD0E20FEF72EFD002211460F20FEF7E0
:1029D00037FD0F20FEF726FD002211461020FEF7DE
:1029E0002FFD1020FEF71EFD002211461120FEF7DC
:1029F00027FDBDE808401120FEF714BD001002407D
:102A00002DE9F04786B000254748009501950295CD
:102A10000395816941F010018161816901F0100124
:102A20000491816941F020018161816901F02001F7
:102A30000491816941F004018161816901F004011F
:102A40000491816941F0080181618069DFF8DC80CF
:102A500000F00800049000224FF489714046FEF710
:102A60007DFCDFF8CCA041F20F070022394650462A
:102A7000FEF774FCDFF8BC900122C0214846FEF747
:102A80006DFC002239114846FEF768FC0122D10393
:102A90004046FEF763FC4FF46040CDE90005012499
:102AA000694602944846FEF769FB40F20F20CDE9E3
:102AB0000005694648460295FEF760FBCDE90045F2
:102AC000694640460294FEF759FB48F20200CDE900
:102AD00000040226CDE9024669464046FEF74EFB59
:102AE0004FF488708DE8710069464046FEF746FB5A
:102AF000CDE90074CDE9024669465046FEF73EFB3B
:102B00004FF4E0708DE8710069464846FEF736FBE9
:102B1000F020CDE90005694602945046FEF72EFBF1
:102B200006B0BDE8F0870000001002400008014038
:102B3000000C014000100140104810B50E49016022
:102B40004FF48271416000218160C1604FF40072D6
:102B50000161C0E905120822C0E9072141628162D2
:102B60000A21C162FEF71AFF002803D0BDE8104019
:102B7000FDF7B0BD10BD0000003001400001002095
:102B80000F4810B50D4901604FF48271416000217A
:102B90008160C1604FF400720161C0E90512C1613A
:102BA0000162416281620A21C162FEF7F7FE0028DC
:102BB00003D0BDE81040FDF78DBD10BD00380040CA
:102BC0005801002010B586B00024164800940194E6
:102BD0000294039404944FF08041059401604721CE
:102BE000C0E9011440F2E731C0E903148461FFF742
:102BF00054F808B1FDF76EFD4FF48050009069461F
:102C00000848FFF7A6F808B1FDF764FD049404A98D
:102C100004480594FFF720F8002801D0FDF75AFD7D
:102C200006B010BDB001002010B586B000241748D2
:102C30000094019402940394049413490594016050
:102C40004721C0E9011440F2E731C0E9031484616F
:102C5000FFF723F808B1FDF73DFD4FF480500090D9
:102C600069460A48FFF775F808B1FDF733FD04948B
:102C700004A906480594FEF7EFFF002801D0FDF7F0
:102C800029FD06B010BD000000040040F001002046
:102C90000C4810B50A4901604FF4E1314160002150
:102CA00081600C22C160C0E904128161C161FFF73B
:102CB0003FFA002803D0BDE81040FDF70BBD10BD62
:102CC00000380140300200200C4810B50A4901606C
:102CD0004FF4E1314160002181600C22C160C0E904
:102CE00004128161C161FFF723FA002803D0BDE817
:102CF0001040FDF7EFBC10BD004400407002002002
:102D00000C4810B50A4901604FF4E13141600021DF
:102D100081600C22C160C0E904128161C161FFF7CA
:102D200007FA002803D0BDE81040FDF7D3BC10BD62
:102D300000480040B0020020FEE770477047FDF7F2
:102D400005BB000070B50D4605490C6805E001465D
:102D50002A46204600F026F86469002CF7D170BDA1
:102D6000C80000202DE9F0410D4E0F460446182101
:102D70003568FDF7F0F967804FF4FA40A081002133
:102D8000E181A08005E0A54202D10020BDE8F081EC
:102D90006D69002DF7D13068606101203460F5E77E
:102DA000C80000202DE9F04794B0054601700F4699
:102DB0000220A91CCDE90910CDE90B100024322115
:102DC000CDE9064101260894CDE90204CDE9044687
:102DD0000190A878904600900223224631460DA823
:102DE00001F046F907EB470108EBC100791C8FB2EF
:102DF00018220DA9FDF796F9291DCDE90A414FF0DA
:102E0000080A05A84FF00A09CDF830A0099480E817
:102E1000500208940194029403940494A8780090BA
:102E200002230022FF210DA801F022F907EB470140
:102E300008EBC1007F1CBFB218220DA9FDF772F983
:102E4000CDE90AA405A80C9480E8500205F10C0114
:102E5000CDE90841CDE9024601940496A878009096
:102E60000223002201210DA801F002F907EB47011E
:102E700008EBC1007F1CBCB218220DA9FDF752F966
:102E800014B02046BDE8F08700224900C28101F558
:102E9000FA4181817047000070B50D4605490C6804
:102EA00005E001462A46204600F0CEF8646A002C70
:102EB000F7D170BDD00000202DE9F0410A4E0F4639
:102EC000044628213568FDF746F9A77005E0A542BC
:102ED00002D10020BDE8F0816D6A002DF7D1306885
:102EE000606201203460F5E7D00000202DE9F05F3A
:102EF0008A469E4693460446DDE91110DDE90F320D
:102F0000DDE90D75DDE90B96BAF5FA7F02D24FF0D7
:102F1000000C03E040F6C41CE24500D9E246BBF1D8
:102F2000140F02D24FF0140C03E047F2305CE3457B
:102F300000D9E346BEF5FA7F02D24FF0000C03E061
:102F400040F6C41CE64500D9E646DDF828C0BCF1D1
:102F5000140F02D24FF0140C04E0E04647F2305C4C
:102F6000E04501D9CDF828C0A4F80AA0A4F80CB017
:102F7000A4F80EE0DDF828C04FF4FA7AA4F810C0E7
:102F8000D14502D24FF0000C03E040F6C41CE145ED
:102F900000D9E146142E01D2142604E047F2305C39
:102FA000664500D96646D046474501D2002704E071
:102FB00040F6C41C674500D96746142D01D214257C
:102FC00004E047F2305C654500D96546A4F81290EC
:102FD000A682E7822583434501D2002304E040F620
:102FE000C415AB4200D92B46142A01D2142204E0A6
:102FF00047F23055AA4200D92A46514501D2002154
:1030000004E040F6C415A94200D92946142801D28B
:10301000142004E047F23055A84200D928466383C3
:10302000A283E18320842078401CC0B2FDF706FB18
:103030002078801CC0B2FDF701FB2078BDE8F05F6E
:10304000C01CC0B2FDF7FABA2DE9F04794B00446AF
:1030500000F8011B0826CDE9090600250127CDE966
:103060000575CDE90B0605204FF00A0A0190CDE960
:1030700007A5CDE902070495A078914688460090FF
:1030800004232A4639460DA800F0F2FF08EB480158
:1030900009EBC10008F101011FFA81F818220DA9FE
:1030A000FDF740F804F10A00CDE90906CDE9057500
:1030B000CDE90B0602200190CDE907A5CDE9020775
:1030C0000495A07800900423002201210DA800F0AF
:1030D000CFFF08EB480109EBC10308F101001FFA1B
:1030E00080F818220DA91846FDF71CF804F112000B
:1030F000CDE90906CDE90575CDE90B060320019060
:10310000CDE907A5CDE902070495A0780090042336
:10311000002201210DA800F0ABFF08EB480109EBEC
:10312000C10308F101001FFA80F818220DA9184602
:10313000FCF7F8FF04F11A00CDE90906CDE90575A1
:10314000CDE90B0604200190CDE907A5CDE90207E2
:103150000495A07800900423002201210DA800F01E
:1031600087FF08EB480109EBC10308F1010084B2B5
:1031700018220DA91846FCF7D5FF14B02046BDE86B
:10318000F0872DE9F04393B0054600F8011B0126B6
:10319000CDE90906CDE90B060024CDE905644FF021
:1031A0000A0901960296CDE90794CDE9036468788F
:1031B00090460F4600900523224631460DA800F0A8
:1031C00057FF07EB470108EBC100791C8FB21822AB
:1031D0000DA9FCF7A7FFA81CCDE90A4004210C911A
:1031E00005A8099480E8500208940194029403947D
:1031F00004946878009005230022FF210DA800F0B8
:1032000037FF07EB470108EBC1007F1CBFB2182254
:103210000DA9FCF787FF08220A9205F10E00CDE9FF
:103220000B06CDF81C90CDE90564A91DCDE9084138
:10323000CDE90246019404946878009005230022A9
:1032400001210DA800F014FF07EB470108EBC100B6
:103250007F1CBCB218220DA9FCF764FF13B02046F6
:10326000BDE8F08370B50D4605490C6805E00146E0
:103270002A462046FFF785FF2469002CF7D170BD50
:10328000D4000020007B704770B50D4605490C68DE
:1032900005E001462A46204600F024F82469002C67
:1032A000F7D170BDCC0000202DE9F0410C4E0F4647
:1032B0009046044614213568FCF74DFFE77084F80A
:1032C0000C8005E0A54202D10020BDE8F0812D6907
:1032D000002DF7D13068206101203460F5E700004F
:1032E000CC0000202DE9F04393B005460F4600F8CE
:1032F000021B02210024CDE909010126CDE9056464
:103300004FF00A09CDE90794CDE9024601940494EF
:10331000CDE90B01E8789046009003232246314620
:103320000DA800F0A5FE07EB470108EBC1007F1CCC
:10333000BFB218220DA9FCF7F5FE05F10C00CDE98E
:103340000A4004210C9105A8099480E850020894D1
:103350000194029403940494E878009003230022DB
:10336000FF210DA800F084FE07EB470108EBC10028
:103370007F1CBFB218220DA9FCF7D4FE281DCDE991
:103380000A4008210C9105A8099480E8500208948D
:10339000CDE9026401960494E878009003230022AA
:1033A000FF210DA800F064FE07EB470108EBC10008
:1033B0007F1CBCB218220DA9FCF7B4FE13B0204646
:1033C000BDE8F08338B50B46009204460022802108
:1033D00000F008F8002804D0606D40F0200060651F
:1033E000032038BD2DE9F0411D4617460E46044620
:1033F000DDF8188008E0681C06D0FDF7B5FFA0EBEB
:103400000800A8420BD255B12068806836EA000057
:1034100030D00020B842EED10020BDE8F081206815
:10342000416821F0E00141606068B0F5827F0BD116
:10343000A068B0F5004F02D0B0F5806F04D12068CD
:10344000016821F040010160A06AB0F5005F09D178
:103450002068016821F4005101602068016841F48E
:1034600000510160012084F85100002084F85000D0
:103470000320D2E70120CDE710B57F4C01220221C5
:103480002046FDF76BFF0120FDF766FE00220221BA
:103490002046FDF763FF0A20FDF75EFE01220221B0
:1034A0002046FDF75BFF1420FDF756FE1120FFF7C5
:1034B00011FA3220FDF750FEB120FFF70BFA05207C
:1034C000FFF722FA3C20FFF71FFA3C20FFF71CFA17
:1034D000B220FFF7FFF90520FFF716FA3C20FFF7AF
:1034E00013FA3C20FFF710FAB320FFF7F3F9052099
:1034F000FFF70AFA3C20FFF707FA3C20FFF704FA2F
:103500000520FFF701FA3C20FFF7FEF93C20FFF70A
:10351000FBF9B420FFF7DEF90320FFF7F5F9C0202F
:10352000FFF7D8F92820FFF7EFF90820FFF7ECF9AB
:103530000420FFF7E9F9C120FFF7CCF9C020FFF71D
:10354000E3F9C220FFF7C6F90D20FFF7DDF90020EF
:10355000FFF7DAF9C320FFF7BDF98D20FFF7D4F9A3
:103560002A20FFF7D1F9C420FFF7B4F98D20FFF727
:10357000CBF9EE20FFF7C8F9C520FFF7ABF91A2009
:10358000FFF7C2F93620FFF7A5F97920FFF7BCF95C
:10359000E020FFF79FF90420FFF7B6F92220FFF79C
:1035A000B3F90720FFF7B0F90A20FFF7ADF92E2095
:1035B000FFF7AAF93020FFF7A7F92520FFF7A4F9B4
:1035C0002A20FFF7A1F92820FFF79EF92620FFF710
:1035D0009BF92E20FFF798F93A20FFF795F9002084
:1035E000FFF792F90120FFF78FF90320FFF78CF91D
:1035F0001320FFF789F9E120FFF76CF90420FFF7AA
:1036000083F91620FFF780F90620FFF77DF90D20DA
:10361000FFF77AF92D20FFF777F92620FFF774F9E5
:103620002320FFF771F92720FFF76EF92720FFF716
:103630006BF92520FFF768F92D20FFF765F93B208E
:10364000FFF762F90020FFF75FF90120FFF75CF94F
:103650000420FFF759F91320FFF756F93A20FFF736
:1036600039F90520FFF750F92920FFF733F9BDE8B4
:1036700010400020FEF7A0BF000C0140704738B595
:1036800003690446C3B100222078042100F00F0032
:103690000090A068FCF7A0FF00280CD12088C0F3A0
:1036A000413101290AD010F4C04F01D0022902D1C2
:1036B00040F4C060208038BD0222E5E720F4C060FD
:1036C00000F58060F6E7FDF755BE30B58FB02821D4
:1036D0006846FCF740FD14210AA8FCF73CFD0121D7
:1036E0000804CDE900100024029402250491CDE9DC
:1036F00007504FF4E01009906846FDF7BFFF0F2018
:10370000CDE90A056802CDE90C4002210AA80E9411
:10371000FDF7C8FE0FB030BD0D48016841F0010152
:10372000016041680B4A1140416001680A4A11403A
:103730000160016821F480210160416821F4FE01EB
:1037400041604FF41F0181600449C0030860704765
:10375000001002400000FFF8FFFFF6FE08ED00E059
:103760000148FEF762BB0000B00100200148FEF7EF
:103770005CBB0000F0010020F0B50268164B174C4E
:10378000174D4FF08047984205D0B84203D0A04271
:1037900001D0A84203D122F070064A683243984211
:1037A00005D0B84203D0A04201D0A84203D122F4F0
:1037B0004074CA6822434C6922F0800222430260AE
:1037C0008A68C2620A688262984201D1096901630B
:1037D00001214161F0BD0000002C014000040040C7
:1037E0000008004010B5846842EA032224F47F44B4
:1037F0000A432243826010BD826822F070020A43AD
:1038000042F007018160704710B5036A046A24F032
:1038100001040462846924F0F00444EA021423F0F1
:103820000A020A438461026210BD10B5036A23F0E4
:10383000100303628369046A23F4704343EA02328B
:1038400024F0A00343EA01118261016210BD024429
:1038500092B2824205D38A4201D9814203D2012029
:1038600070478A42F9D90020704700000248418819
:10387000491C418070470000C000002010B5FFF7D0
:10388000F5FFBDE81040FCF7CFBD000010B500F01B
:10389000F1FA0A48017921B100231A46194618465F
:1038A00007E0B0F91030B0F90E20B0F90C10B0F903
:1038B0000A00BDE8104000F033BB000044000020C7
:1038C000024948600248FEF733BA00001C0000209D
:1038D000B0010020024908600248FEF729BA000042
:1038E0001C000020F001002038B50168054608687A
:1038F000C043C0061ED41048006881421AD108682F
:10390000486800902846FEF75EFB686B00684168D7
:103910000A4C6088411A0904090C218000D12080DA
:10392000606800B1804762882846A168BDE83840D9
:10393000FEF770BD38BD000070020020300000208E
:1039400038B5016805460868C043C0061ED4104853
:10395000006881421AD10868486800902846FEF73E
:1039600032FB686B006841680A4C6088411A0904A0
:10397000090C218000D12080606800B180476288F6
:103980002846A168BDE83840FEF744BD38BD0000B8
:10399000B00200202400002010B5406A0021C1853B
:1039A000C184FEF73CFB10BD70B5446A20684069D5
:1039B00094F83910C0F3C0100025212904D118B1A2
:1039C000E584204600F046F82068406994F83A10F3
:1039D000C0F38010222904D118B1E585204600F0FB
:1039E0002BF8E06B40F01000E0632046FEF717FB79
:1039F00070BD10B50146406A09680968890613D48C
:103A00000021C1850168CA6822F48072CA60016819
:103A10004A6922F001024A6101684A6922F04002C3
:103A20004A61202180F83A10FEF76AFD10BD10B5FA
:103A3000406AFEF77BFD10BD0168CA6822F49072EF
:103A4000CA6001684A6922F001024A61202180F8B7
:103A50003A1070470168CA6822F0C002CA6020218B
:103A600080F83910704710B590F83A10222901D02B
:103A7000022010BD8168B1F5805F11D00169002975
:103A800001681FD0496801F07F03816A4A1C826285
:103A90000B70C18D491E0904090CC18518D02BE09B
:103AA0000269816A002A0268526805D0D2B20A808F
:103AB000816A491C8162ECE7C2F308020A80816ACC
:103AC000891CF7E74A68816A4B1C83620A70E0E749
:103AD0000168CA6822F02002CA600168CA6822F43C
:103AE0008072CA6001684A6922F001024A6120219D
:103AF00080F83A10FEF704FD002010BD2DE9F041DA
:103B0000044600680169E26821F4405111430161F3
:103B10002169A0680843616908432168CA6841F2C5
:103B20000C639A430243CA6020684169A26921F488
:103B30004071114341611E49206864253226884244
:103B400002D1FDF755FD01E0FDF742FD00EBC0019C
:103B500001EB001160686FF018078000B1FBF0F214
:103B6000B2FBF5F2B1FBF0F37A4303EB8202B1FB57
:103B7000F0F306EB0212B2FBF5F2B3FBF5F302F041
:103B8000F00202EB0312B1FBF0F3B1FBF0F0B0FB7B
:103B9000F5F0784303EB800006EB0010B0FBF5F086
:103BA000216800F00F0010448860BDE8F08100003B
:103BB0000038014090F83910212901D002207047C7
:103BC0008168B1F5805F016A0BD04A1C026202680D
:103BD00009785160C18C491E0904090CC1840ED0BA
:103BE00017E009880268C1F30801516001690029E2
:103BF000016A02D0491C0162ECE7891CFBE70168FD
:103C0000CA6822F08002CA600068C16841F04001C1
:103C1000C1600020704700000148FEF701BA0000B3
:103C20003002002010B50448FFF75EFEBDE81040EA
:103C30000148FEF7F5B900007002002010B50448F5
:103C4000FFF77EFEBDE810400148FEF7E9B900002D
:103C5000B00200200148FCF7A3BE0000D8000020FD
:103C6000FEE70907090E002804DB00F1E02080F8D8
:103C70000014704700F00F0000F1E02080F8141DE0
:103C8000704702E008C8121F08C1002AFAD1704725
:103C90007047002001E001C1121F002AFBD17047CC
:103CA000034A4318081A53819081D38110827047C8
:103CB0004400002010B56FF0310300280DD01DDD49
:103CC0004FF0320201FB02F191FBF0F10BB200EB7D
:103CD000800000BF4FEA80001CE0002906DD4FF0A5
:103CE00000024FF0320301EB8100F3E706DA6FF0D8
:103CF00013004FF0000201FB00F00BE01A466FF0DA
:103D0000310301FB03F191FBF0F10BB26FF01301F2
:103D100000FB01F0084C02EB0301A3EB02026181FE
:103D2000A281E1812282FDF717FA00206081A08143
:103D3000E081208210BD000044000020094A2821B3
:103D40006FF02703012807D051819381D38111821D
:103D50004FF47A70FDF700BA53819181D1811382BB
:103D6000F6E700004400002070B5404C8AB0A4F192
:103D70004805A08A228A81B2A88D2B8D80B292B28A
:103D80009BB2CDE90701CDE90532A98CA0898AB2A1
:103D900021892B8C80B2CDE9032089B29BB2CDE979
:103DA0000131A08880B20090A88883B2208882B2B6
:103DB000288881B22E48FFF799F84FF448763046AC
:103DC000FDF7CAF9A08AB5F84410228AB5F8403048
:103DD00080B289B2CDE9071092B29BB2CDE905322B
:103DE000A089A98F22892B8F80B289B2CDE90310D7
:103DF00092B29BB2CDE90132A08880B20090A8882F
:103E000083B2208882B2288881B21948FFF76EF801
:103E10003046FDF7A1F9A08A218A82B2A88A2B8AAE
:103E200080B289B2CDE906109BB205930892A089B1
:103E3000A98922892B8980B289B2CDE9031092B277
:103E40009BB2CDE90132A08880B20090A88883B2ED
:103E5000208882B2288881B20548FFF747F80AB067
:103E60003046BDE87040FDF777B90000A80000209B
:103E70002C08002010B51A48FFF704FA194C60719D
:103E800017481430FFF7FEF9A07115482830FFF7E6
:103E9000F9F9E07112483C30FFF7F4F9207220780C
:103EA000012812D160796FF00101FF2804D00122AE
:103EB00060280BD30D200EE061826078002804D0CA
:103EC000E078401CE0700020607010BD401E0528A6
:103ED00004D86FF010006082627010BD618210BD66
:103EE0005408002044000020FDF74CFAFFF7EDFBDA
:103EF000FEF786FDFEF746FDFEF720FDFEF71CFEF1
:103F0000FEF73EFEFEF75EFEFEF78EFEFEF7C0FEFB
:103F1000FEF7DAFEFEF7F4FEFCF77EF9FCE70000A0
:103F200070B50E4C648A20440E1B151B01B21C4454
:103F30000B48FEF7A9FF704201B209481830FEF79E
:103F4000A3FF684201B206483030FEF79DFF21B260
:103F5000BDE8704002484830FEF796BF440000209C
:103F6000CC07002070B5404C8AB0A4F14805A08A67
:103F7000B5F84410228AB5F8403080B289B2CDE954
:103F8000071092B29BB2CDE90532A98FA0898AB2FF
:103F900021892B8F80B2CDE9032089B29BB2CDE974
:103FA0000131A08880B20090A88883B2208882B2B4
:103FB000288881B22D48FEF799FF4FF448763046A5
:103FC000FDF7CAF8A08AA98D228A2B8D80B289B20A
:103FD000CDE9071092B29BB2CDE90532A0892289C2
:103FE00081B2A88C2B8C80B292B29BB2CDE9030136
:103FF000CDE90132A08880B20090A88883B22088E1
:1040000082B2288881B21948FEF770FF3046FDF76A
:10401000A3F8A08A2A8A83B2208A92B280B2CDE91C
:1040200005204FF4E161CDE90713A0892B8981B206
:10403000A8899BB282B22089019380B2CDE90202A5
:104040000491A08880B20090A88883B2208882B2B0
:10405000288881B20548FEF749FF0AB03046BDE81E
:104060007040FDF779B80000A80000202C0800205F
:104070002DE9FF4F87B014ACDDE91D8694E8000EF2
:10408000DDE91F750020DDF870E0044658EA060CF3
:104090000BD0844669F3134C63F31B5C6AF30F3C4B
:1040A000644662F3030461F30B1457EA050C09D06C
:1040B00062F3134061F31B506BF30F3069F303009D
:1040C00063F30B10082E00D90826082D00D9082507
:1040D000179ABDF80010CDE9024062F30821189A42
:1040E000ADF806E062F34A21199A1A9862F34E314C
:1040F00060F3CC211B98ADF80010ADF804009DF8DA
:104100000000059766F3030065F307108DF80000C3
:10411000BDF80200CDF810806FF30800ADF8020082
:10412000182269460798FBF7FDFF0BB0BDE8F08F3A
:104130000000000000000000010203040607080957
:104140000000000001020304000000000000000065
:10415000000000000000202020202020002000007F
:104160000028505000000000000000000000282837
:10417000FC2850FC50500000002078A8A060302897
:10418000A8F02000000048A8B0502834544800008F
:10419000000020505078A8A8906C0000004040809B
:1041A00000000000000000000004081010101010B3
:1041B00010080400004020101010101010204000C3
:1041C00000000020A87070A820000000000020203F
:1041D00020F8202020000000000000000000000067
:1041E000004040800000000000F8000000000000D7
:1041F0000000000000000000004000000008101057
:104200001020204040408000000070888888888806
:104210008870000000002060202020202070000016
:10422000000070888810204080F80000000070882E
:104230000830080888700000000010305050907856
:10424000101800000000F88080F008088870000056
:104250000000709080F08888887000000000F8905E
:10426000102020202020000000007088887088889E
:104270008870000000007088888878084870000006
:1042800000000000200000000020000000000000EE
:104290000020000000202000000408102040201012
:1042A0000804000000000000F80000F80000000012
:1042B0000040201008040810204000000000708812
:1042C00088102020002000000000708898A8A8B85E
:1042D00080780000000020203050507848CC00004A
:1042E0000000F0484870484848F000000000788816
:1042F00080808080887000000000F048484848486E
:1043000048F000000000F8485070504048F80000A5
:104310000000F8485070504040E00000000038486D
:1043200080809C88483000000000CC48487848488D
:1043300048CC00000000F8202020202020F80000B9
:1043400000007C10101010101090E0000000EC48ED
:104350005060505048EC00000000E04040404040B9
:1043600044FC00000000D8D8D8D8A8A8A8A800000D
:104370000000DC486868585848E800000000708871
:1043800088888888887000000000F04848704040A5
:1043900040E0000000007088888888E89870180065
:1043A0000000F0484870504848EC00000000788851
:1043B0008060100888F000000000F8A8202020206D
:1043C000207000000000CC484848484848300000B1
:1043D0000000CC4848505030202000000000A8A821
:1043E000A8705050505000000000D850502020506D
:1043F00050D800000000D85050202020207000002D
:104400000000F8901020204048F8000000382020DC
:104410002020202020203800004040402020101084
:104420001008000000701010101010101010700014
:10443000002050000000000000000000000000000C
:1044400000000000000000FC002000000000000050
:10445000000000000000000000304838483C000028
:104460000000C04040704848487000000000000054
:104470000038484040380000000018080838484814
:10448000483C000000000000003048784038000040
:1044900000001C2020782020207800000000000070
:1044A000003C4830407844380000C04040704848E4
:1044B00048EC000000002000006020202070000078
:1044C0000000100000301010101010E00000C0407C
:1044D000405C507048EC00000000E02020202020CC
:1044E00020F800000000000000F0A8A8A8A8000024
:1044F0000000000000F0484848EC00000000000008
:1045000000304848483000000000000000F04848F3
:10451000487040E000000000003848484838081C57
:104520000000000000D8604040E0000000000000F3
:104530000078403008780000000000202070202023
:10454000201800000000000000D84848483C000047
:104550000000000000EC4850302000000000000087
:1045600000A8A870505000000000000000D85020A3
:1045700050D800000000000000EC4850302020C05F
:1045800000000000007810202078000000181010B3
:104590001020101010101800101010101010101013
:1045A000101010100060202020102020202060001B
:1045B00040A41800000000000000000000000000FF
:1045C00000000000000000000000000000000010DB
:1045D00010101010101000001818000000123624DF
:1045E000480000000000000000000000000000245F
:1045F0002424FE484848FE4848480000000010387F
:1046000054545030181414545438101000000044FE
:10461000A4A8A8A8541A2A2A2A440000000000309E
:10462000484848506EA49488897600000060602055
:10463000C0000000000000000000000000020408AC
:10464000081010101010100808040200004020107C
:10465000100808080808081010204000000000009A
:104660001010D63838D610100000000000000000EE
:1046700010101010FE1010101000000000000000BC
:104680000000000000000000606020C0000000008A
:10469000000000007F00000000000000000000009B
:1046A0000000000000000000606000000000010247
:1046B00002040408081010202040400000000018E8
:1046C00024424242424242422418000000000010AC
:1046D0007010101010101010107C00000000003C32
:1046E0004242420404081020427E00000000003CC8
:1046F0004242041804020242443800000000000450
:104700000C14242444447E04041E00000000007E97
:104710004040405864020242443800000000001C3F
:104720002440405864424242241800000000007EA9
:104730004444080810101010101000000000003C45
:104740004242422418244242423C00000000001829
:1047500024424242261A02022438000000000000CF
:1047600000001818000000001818000000000000E9
:1047700000000010000000000010102000000002E7
:10478000040810204020100804020000000000006F
:104790000000FE000000FE000000000000000040DD
:1047A0002010080402040810204000000000003C13
:1047B0004242620204080800181800000000003895
:1047C000445AAAAAAAAAB442443800000000001021
:1047D00010182828243C444242E70000000000F85A
:1047E000444444784442424244F800000000003E01
:1047F000424280808080804244380000000000F8FF
:10480000444242424242424244F80000000000FC5E
:10481000424848784848404242FC0000000000FC02
:10482000424848784848404040E000000000003CD2
:1048300044448080808E844444380000000000E7B7
:10484000424242427E42424242E700000000007C77
:104850001010101010101010107C00000000003E0E
:104860000808080808080808080888F0000000EE92
:10487000444850705048484444EE0000000000E0B6
:10488000404040404040404042FE0000000000EEFA
:104890006C6C6C6C5454545454D60000000000C727
:1048A000626252524A4A4A4646E20000000000381C
:1048B000448282828282828244380000000000FCAE
:1048C000424242427C40404040E00000000000384C
:1048D000448282828282B2CA4C380600000000FC08
:1048E0004242427C4848444442E300000000003E0B
:1048F0004242402018040242427C0000000000FEB8
:10490000921010101010101010380000000000E776
:104910004242424242424242423C0000000000E722
:10492000424244242428281810100000000000D619
:1049300092929292AAAA6C4444440000000000E7BC
:10494000422424181818242442E70000000000EE36
:104950004444282810101010103800000000007E79
:10496000840408081020204242FC0000001E1010A1
:10497000101010101010101010101E0000004040F9
:10498000202010101008080404040202007808080F
:10499000080808080808080808087800001C220011
:1049A0000000000000000000000000000000000007
:1049B0000000000000000000000000FF0060100088
:1049C00000000000000000000000000000000000E7
:1049D0000000003C421E2242423F0000000000C096
:1049E00040404058644242426458000000000000C9
:1049F0000000001C22404040221C00000000000675
:104A00000202021E22424242261B00000000000059
:104A10000000003C427E4040423C00000000000F8D
:104A20001110107E10101010107C0000000000000B
:104A30000000003E444438403C42423C000000C07C
:104A40004040405C6242424242E7000000000030C9
:104A50003000007010101010107C00000000000CDE
:104A60000C00001C0404040404044478000000C08A
:104A70004040404E4850684844EE0000000000703E
:104A80001010101010101010107C0000000000001A
:104A9000000000FE4949494949ED000000000000BE
:104AA000000000DC6242424242E7000000000000D9
:104AB0000000003C42424242423C00000000000034
:104AC000000000D864424242447840E00000000008
:104AD0000000001E22424242221E02070000000087
:104AE000000000EE3220202020F80000000000002E
:104AF0000000003E42403C02427C000000000000FA
:104B00000010107C10101010100C000000000000AD
:104B1000000000C642424242463B00000000000046
:104B2000000000E7422424281010000000000000CC
:104B3000000000D79292AAAA44440000000000009E
:104B40000000006E241818182476000000000000F1
:104B5000000000E742242428181010E000000000A4
:104B60000000007E44081010227E000000030404B0
:104B700004040408040404040404030008080808E6
:104B80000808080808080808080808080060101045
:104B9000101010081010101010106000304C43005E
:104BA0000000000000000000000000000000000005
:104BB00000000000000000000000000000000000F5
:104BC000000000000000000000000000A1F1000053
:104BD00007C01FF03FF83FF87FFC7FFC7FFC7FFCA5
:104BE0007FFC3FF83FF81FF007C000000000A1F075
:104BF000000007C01C7030183018600C600C600C8E
:104C0000600C600C301830181C7007C000000000E9
:104C1000A1F500007FFC400440044004400440042F
:104C20004004400440044004400440047FFC000071
:104C30000000A1F600007FFC7FFC7FFC7FFC7FFC76
:104C40007FFC7FFC7FFC7FFC7FFC7FFC7FFC7FFC8C
:104C500000000000A1F700000100010002800280B6
:104C600004400440082008201010101020082008DC
:104C70007FFC00000000A1F800000100010003809B
:104C8000038007C007C00FE00FE01FF01FF03FF8E0
:104C90003FF87FFC00000000A1C100000000000000
:104CA0001010082004400280010002800440082007
:104CB00010100000000000000000A1F900004304F3
:104CC00023081010082004400280610C628C04400C
:104CD000082010102308430480020000A1B4000043
:104CE0000004000800100020004000800100008047
:104CF0000040002000100008000400000000A1B5E2
:104D000000002000100008000400020001000080E4
:104D10000100020004000800100020000000000054
:104D2000A1C4000001000100028002800440044090
:104D3000082008201010101020082008400400004F
:104D40000000A1C500000000400420082008101049
:104D50001010082008200440044002800280010056
:104D600001000000A1FA0000000000000000008027
:104D700000600038FFFE0038006000800000000086
:104D8000000000000000A1FB000000000000000087
:104D900002000C003800FFFE38000C00020000008A
:104DA0000000000000000000A1FC010001000380E1
:104DB000038007C005400920010001000100010037
:104DC00001000100010001000100A1FD010001003E
:104DD00001000100010001000100010001000920A3
:104DE000054007C003800380010001000C4E00084D
:104DF00000000020D8000000823C0008E44E0008BB
:104E0000D8000020900F0000923C00080100000034
:104E100010000000000000000024F400000000006A
:104E2000FFFF000000000000000000000000000084
:104E30000000000000000000000000000000000072
:104E40000000000000000000000000000000000062
:104E50000100000000000000000000000000000051
:104E6000000000000000000000000000DC05000061
:104E7000DC050000D0070000D0070000D0070000CC
:104E80005C080000DC050000DC050000D007000025
:104E9000AA0500006608000008070000DC05000005
:104EA000DC050000D0070000AA050000660800002D
:104EB0005C0800001E0000001E0000001E00000034
:104EC0001E0000001E0000001E0000000000000088
:104ED00000000000000000000000000000000000D2
:044EE00000000000CE
:04000005080000ED02
:00000001FF
