:020000040800F2
:1000000010230020010100088F4A0008813E0008EB
:100010008D4A000885060008A9620008000000005B
:10002000000000000000000000000000BD5A0008B1
:10003000230B000800000000E54D0008515B00089C
:100040001B0100081B0100081B0100081B01000820
:100050001B0100081B0100081B0100081B01000810
:100060001B0100081B0100081B0100081B01000800
:10007000B10A0008BD0A0008C90A0008D50A00082C
:10008000E10A0008ED0A00081B0100081B01000836
:100090005D6200081B0100081B0100081B0100082D
:1000A0001B0100081B0100081B0100081B010008C0
:1000B000ED5B0008F95B00081B0100081B0100084C
:1000C0001B0100081B0100081B0100081B010008A0
:1000D0001B010008216200082D620008456200082B
:1000E0001B0100081B0100081B010008DFF80CD0F1
:1000F00000F03CF800480047B364000810230020DB
:100100000648804706480047FEE7FEE7FEE7FEE7B1
:10011000FEE7FEE7FEE7FEE7FEE7FEE7A55B000879
:10012000ED00000840EA01039B0703D009E008C97D
:10013000121F08C0042AFAD203E011F8013B00F8AC
:10014000013B521EF9D27047D2B201E000F8012BF8
:10015000491EFBD270470022F6E710B513460A4647
:1001600004461946FFF7F0FF204610BD064C074D28
:1001700006E0E06840F0010394E807009847103477
:10018000AC42F6D3FFF7B6FFF87300081874000806
:1001900038B540F6C4144FF496752B4600229349A7
:1001A0009348009406F043F9924A0021904806F0E3
:1001B000ACF8904A03218E4806F0A7F88C482B46ED
:1001C00000228D493430009406F031F988488B4A7A
:1001D0000021343006F099F885482B4600228849E2
:1001E0006830009406F023F98148864A002168307F
:1001F00006F08BF87E482B46002283499C30009401
:1002000006F015F97A48814A00219C3006F07DF805
:1002100077487E4A02219C3006F077F874487B4A82
:1002200003219C3006F071F871482B460022784972
:10023000D030009406F0FBF86D48764A0021D030AB
:1002400006F063F82B46002273497448009406F0C8
:10025000EEF8734A0021714806F057F86F482B46B4
:10026000002270493430009406F0E1F86B486E4A81
:100270000021343006F049F86C4A01215C4806F050
:1002800044F85B48694A0121343006F03EF858488A
:10029000664A0121683006F038F86048634A012157
:1002A000683806F032F85D48604A0121343806F0BB
:1002B0002CF85E4A0121594806F027F857485B4A56
:1002C0000121343006F021F8494806F0C9F84848C1
:1002D000343006F0C5F84648683006F0C1F84F489B
:1002E000683806F0BDF84D48343806F0B9F84B4888
:1002F00006F0B6F84948343006F0B2F84748012114
:100300007C3004F099FD45480221943004F094FDBE
:1003100042480321AC3004F08FFD40480421C43032
:1003200004F08AFD3D4800220121DC3005F072F81E
:100330003A4800220221F03005F06CF80022032137
:100340003B4805F067F83A4800220421143005F0D4
:1003500061F837480121283004F01EFE2F480321A0
:10036000683004F099FF04F04FFC324C0220E07337
:10037000207400F02BF91E49142228392E4800F071
:10038000C7F81B49142214392C4800F0DDF82C481A
:1003900000F0F6F800F0D8F905F08EFA00F03AFB1C
:1003A0004FF6FF7003F092FE00206071A071FF21F4
:1003B000E17120722348A06305F006F9A07360B9CB
:1003C000214C1C480C2221466E3005F08DF908485E
:1003D0000C222146FC3805F015F91C4805F0C0FC3C
:1003E000BDE838401A4805F0B1BC000041400008A3
:1003F000F4180020053F000855400008393F000868
:1004000069400008513F00087D4000086D3F00082A
:1004100091400008CD3F0008A5400008F8190020D1
:1004200011400008B9400008294000081562000882
:10043000FC1A002050000020D15D0008655E000815
:10044000ED4D0008D10D00089CFF3F00195D00082C
:10045000095D00080025FFF79BFE254E254F264C21
:10046000217CE07B814202D0207400F0AFF805F0DF
:10047000FBFE04F00DFB04F063FB3078732810D012
:10048000412813D001220821384602F057FA3220C1
:1004900002F046F96D1CADB20A2D0FD3A07838B129
:1004A0000BE00821384602F042FAF0E70022EAE7C2
:1004B00011480C216E3000F03FF80025A06B00B110
:1004C000804703F0DFFC607303F0E4FC617B41EAEA
:1004D0004000607303F0E8FC617B41EA80006073D8
:1004E00003F0ECFC617B41EAC0006073B8E70000F8
:1004F00024000020000C01405000002004F0C8B887
:1005000003F096BC0148406A7047000004010020D7
:10051000074B10B558605A800648996003F05CFBA1
:1005200004480068C16841F01001C16010BD0000BE
:10053000380000209C0200200A460146014803F0D2
:1005400035BC00009C020020074B10B558605A8053
:100550000648996003F040FB04480068C16841F018
:100560001001C16010BD00002C000020DC02002042
:100570000A460146014803F019BC0000DC020020D5
:10058000024901224860024803F072BB4400002087
:100590005C0200202DE9F04101220A4F0C4605467D
:1005A00016023146384602F0C9F923461A46294652
:1005B000054803F09EFB31463846BDE8F041002275
:1005C00002F0BCB9000801405C0200202DE9F047B0
:1005D00086B02849002405460294886940F010003E
:1005E0008861886900F010000490886940F0080074
:1005F000886188694FF0030800F00800CDE90380A6
:100600000E15DFF874A0022769465046CDE9006751
:1006100002F098F84FF40069CDE90094694650461D
:10062000029402F08FF8CDE90067144E6946CDF8C8
:100630000C80304602F086F8CDE9009469463046D9
:10064000029402F07FF80E49012D0AD0022D05D147
:10065000486820F0300040F0E060486006B0BDE837
:10066000F087486820F0300040F0E06040F0100073
:10067000F3E700000010024000100140000C0140B0
:1006800000000140FEE700002DE9F047DFF8B080F0
:10069000DFF8B0900546002707EB470608EBC604D5
:1006A000EA68E16891423BD1606938B1A97818F8ED
:1006B0003600B1EB101F33D100200CE018F83600E3
:1006C00000092DD0687848B92AE029186269C978EC
:1006D0001154401CC0B2A9788142F6D8E86801F0F4
:1006E000D6FA2069414618B911F83600000717D02C
:1006F00031F83600C0F3413222B1012A08D0022A73
:100700000ED113E0A188B9F80200401AE08007E09A
:10071000C0F34122022A03D140F4C06028F8360019
:100720007F1CFFB2282FB7D3BDE8F08720F4C0604C
:1007300040F4807000F5007028F83600E2E7000011
:100740004C1B0020EE000020054910B54FF4FA6064
:10075000488003F0BDFBBDE81040FFF7D1BE0000AC
:10076000EE0000202DE9FF47684600F0EBF810B1DD
:100770006846FFF789FF654C607850B13222618886
:10078000A08805F0AAFA002801D000206070BDE81A
:10079000FF8701F07BFADFF8788100274FF00059DE
:1007A0004FF0805A07EB470638F83600C1057FD571
:1007B000424610F4C05F04D0C0F3C12001281FD00E
:1007C00076E0C0F34121012904D002290CD003298D
:1007D0000DD06DE007EB470002EBC0051746284639
:1007E0002AE06088E88068E008EBC60537E002EBA5
:1007F000C60320F4C060598821F4FE71598055E089
:1008000008EBC6056188AA88E88805F066FA28B171
:1008100038F83600C0F34120012808D038F83600F7
:10082000C0F3412102291AD0032935D040E007EB5B
:100830004700474608EBC00005F041F96888C0F35F
:1008400082110529CDD237F83610C1F34121012993
:10085000C7D109EB70204FEAF0506880C1E7688883
:1008600020F4E0706880AA88E888618805F035FA8D
:10087000F0B138F8361021F4C06101F5007128F8A4
:1008800036106888C0F383010A2911D20AEBB01030
:100890004FEAB06068800BE0698820F4C06021F402
:1008A000FE7169806188E98000F5007028F83600E3
:1008B0007F1CFFB2282FFFF475AF00252E46474658
:1008C00006EB460007EBC0014888C0F38212052AF8
:1008D00004D320F4E07045F002054880FFF712FED3
:1008E00008B145F004055DB1FFF708FEFFF708FE0B
:1008F0006088A0800120607020782843207046E73F
:10090000761CF6B2282EDBD3F6E70000EE000020BE
:100910004C1B002030B587B014460A9A1D46082AA1
:1009200000D90822019002910090CDE9034206AB64
:100930002A466946024801F0C6F907B030BD0000FA
:100940000401002030B50B490A784B789A4201D156
:10095000002030BD01EB0212121D3CCA80E83C00B1
:1009600008781422401CB0FBF2F302FB130008705D
:10097000012030BDB4060020074A00EB400132F8E8
:10098000310010F4C05F05D120F4C06000F50070A4
:1009900022F83100704700004C1B00201A4810B5A7
:1009A000806B1A49884218D1174C19484634B4F95B
:1009B000001004F0DAFA1648B4F90210183004F006
:1009C000D4FA1348B4F90410303004F0CEFA1048C9
:1009D000B4F90610483004F0C8FA0D4804F0BEFA25
:1009E000094C563420800A48183004F0B7FA608069
:1009F0000748303004F0B2FAA0800548483004F0CF
:100A0000ADFAE08010BD000050000020610E00082B
:100A1000741A002070B500F026F82C254FF47846A3
:100A20008424304603F02AFE641E002CF9DC6D1E7F
:100A3000002DF5DC2C254FF4FC668424304603F0B1
:100A40001DFE641E002CF9DC6D1E002DF5DC2C252E
:100A500084241F2003F012FE641E002CF9DC6D1E9E
:100A6000002DF5DC70BD10B52A2003F0D3FD002069
:100A700003F0EAFD002003F0E7FD002003F0E4FDB1
:100A8000AF2003F0E1FD2B2003F0C4FD002003F0B4
:100A9000DBFD002003F0D8FD002003F0D5FD8F2002
:100AA00003F0D2FDBDE810402C2003F0B3BD0000E0
:100AB000014801F025BD000070040020014801F04C
:100AC0001FBD00002C040020014801F019BD0000EA
:100AD00060030020014801F013BD00001C0300204A
:100AE000014801F00DBD0000A4030020014801F001
:100AF00007BD0000E803002030B590F84050012405
:100B0000AC40C56B6C60046863604368102B03687D
:100B100003D099600068C26030BD9A600068C1600F
:100B200030BD70472DE9F0475E4A5F4FDFF87CC16A
:100B3000966BBE420FD19179062901D3052191719F
:100B4000584993797A3101EB430140F6C4154FF4CB
:100B5000FA740A230FE066450DD19179042901D377
:100B6000032191714F49937946314FF4487501EB58
:100B700043016C421423DFF838914FF000084FF026
:100B8000010A28B101280ED1BE4255D1088857E08C
:100B9000BE420AD10888EA1A904201DC184445E0B6
:100BA000A84200D20D80BDE8F087664507D1B1F9B3
:100BB0000000EA1A9042F1DDA842F3DBF3E74E456C
:100BC000F1D1917999B142F6E060012918D002295A
:100BD00021D00329E7D1118B4EF660208142E2D269
:100BE000C83189B211838142DDD91083DBE7907A65
:100BF000012802D082F80AA0D5E782F80A80D2E75D
:100C0000B2F914108142CEDA643109B29182814284
:100C1000C9DD9082C7E7B2F916108142C3DA6431A8
:100C200009B2D1828142BEDDD082BCE70880BAE73A
:100C3000A042B8DD0C80B6E7664506D1B1F90000E8
:100C4000E2189042F4DBC01AF0E74E45ABD191793F
:100C500059B1184801290CD0022914D00329A2D176
:100C6000108B282819D91438BFE7907A0028C4D1EE
:100C7000C0E7B2F91410814295DD643909B291825E
:100C80008142C6DB8FE7B2F9161081428BDD6439F1
:100C900009B2D1828142C7DB85E7142883D91420A9
:100CA000A3E700005000002005140008610E0008B2
:100CB000A514000820D1FFFF194808B5194A816B17
:100CC000914202D0184A914215D1807950B1012841
:100CD0000BD002280CD0032821D11448BDE80840CD
:100CE00004F092BB11483C38F8E710482838F5E783
:100CF0000E481438F2E70E4A914210D1817A012948
:100D000001D0002300E0038B41F270710091B0F933
:100D10001620B0F914100548B03804F0A2FA08BD46
:100D200050000020991A000809180008101B002024
:100D3000A514000870B51249124C134E8A6B134D5E
:100D4000A24201D1052304E0B24201D0AA4200D15F
:100D50000323A24206D0B24204D0AA4202D00C4CD5
:100D6000A24207D138B1012804D18879002801D0E6
:100D7000401E887170BD88799842FBD2401CF8E70C
:100D80005000002005140008610E0008A51400089A
:100D9000991A00080C490A7A012A0FD1CA798B796D
:100DA0009A420BD158B1012808D14879012805D9B8
:100DB000401E4871002008720448886370474879D3
:100DC0000828FBD2401CF4E750000020D10D000899
:100DD00070B5214D287A00283DD14FF6FF7420468A
:100DE00003F074F90020A871FF21E97168790122EC
:100DF00000B96A7168790346801E052826D2DFE8AB
:100E000000F01F030C1A1F00134886300480448032
:100E10008480C4800481448118E00F494FF0FF3082
:100E20004E31088048808880C88010310880488012
:100E30008880C8800AE0E9726983A983E98305E0B4
:100E400005486630048044808480C480034850F89C
:100E50002300A8632A7270BD50000020647200084D
:100E60002DE9FF5F404802270025C27981790C26D1
:100E70004FF6FF794FF0520A8A4233D0DFF8EC8008
:100E8000C1710024834600BF9BF807000295A04271
:100E900008EB041000F16000CDE9000604EB8400CB
:100EA00007EB800102D100234A4601E04B460022B5
:100EB000022000F0EDFE08EB0410A030CDE90006A2
:100EC000600800EB800104F0010002950AEB81014B
:100ED00007EB80104B46002200F0DAFE641CE4B2FF
:100EE000042CD1D3DFF88080002408F14E0808F1EB
:100EF000100B00BF1C4938F91430463131F9142069
:100F000093420ED028F8142004EB8400CDE900654C
:100F100007EB8000CDE90259C1B20423562003F04B
:100F200005FB11493BF91430563131F91420934235
:100F300013D02BF81420600800EB80010AEB81002D
:100F4000C1B2CDE9006504F001002823CDE90259C2
:100F500003EB8010042303F0E9FA641CE4B2042CD0
:100F6000C8D3BDE8FF9F0000500000208872000831
:100F70002DE9FF47ED4E00240C25F179B07906F1FB
:100F800040094FF6FF7781427ED0F071E8A0CDE9AD
:100F900000053B46002212210294022000F078FE58
:100FA000E4A0CDE900053B46002212210294422034
:100FB00000F06EFEE0A0CDE900053B4600222221B4
:100FC0000294022000F064FEDCA0CDE900053B465F
:100FD000002222210294422000F05AFED8A0CDE93E
:100FE00000053B46002232210294022000F050FE10
:100FF000D5A0CDE900053B460022322102944220D3
:1010000000F046FED2A0CDE900053B460022422179
:101010000294022000F03CFECEA0CDE900053B4644
:101020000022422102942F2000F032FECAA0CDE916
:1010300000053B460022422102945C2000F028FE7D
:10104000C6A0CDE900053B460022522102940220B1
:1010500000F01EFEC2A0CDE900053B460022522151
:1010600002942F2000F014FEBEA0CDE900053B46FF
:101070000022522102945C2000F00AFEF02030731E
:1010800000205A22494600E004E00A54401CC0B245
:101090000228F8D3DFF8D082317B98F8000088422C
:1010A0000FD0307373285ED041285ED0AFA03B468E
:1010B0004FF478420294CDE900050221084600F081
:1010C000E7FD98F80010732901D0412970D199F8F3
:1010D000021098F806204E46914209D0B270CDE930
:1010E0000054CDE9024703231221222003F0CCF95A
:1010F000F17898F80720914209D0F270CDE90054B8
:10110000CDE9024703231221622003F0BDF93179B2
:1011100098F80420914209D03271CDE90054CDE90C
:10112000024722210323084603F0AEF9717998F8AB
:101130000520C146914209D07271CDE90054CDE934
:10114000024703232221622003F09EF9317899F8A7
:101150000200B0464E46814274D088F80000C006B6
:1011600008D585A007E085A000E087A03B460022C7
:101170000294A0E787A0CDE900053B46002262214A
:101180000294162000F084FDB078400601D582A0BC
:1011900000E082A0CDE900053B46002262210294D6
:1011A0002A2000F075FDB078000602D57CA001E091
:1011B000BAE07CA0CDE900053B4600226221029402
:1011C0003E2000F065FDB078800601D576A000E0F5
:1011D00076A0CDE900053B46002262210294522010
:1011E00000F056FDCDE90054CDE90247B078012367
:1011F000C0F340024221702003F046F9CDE90054CB
:10120000CDE90247B0780123C0F38002522170205B
:1012100003F03AF9CDE90054CDE90247B078012353
:1012200000F0010232212C2003F02EF9CDE9005408
:10123000CDE90247B0780123C0F3C00232216C200F
:1012400003F022F998F80120F07882426CD088F8F7
:101250000100CDE90054CDE90247C0F3800201232B
:101260004221162003F010F9CDE90054CDE90247E0
:10127000F0780123C0F3C0025221162003F004F9D4
:10128000CDE90054CDE90247F078012300F00102D6
:101290004221432003F0F8F8CDE90054CDE902479C
:1012A000F0780123C0F340025221432003F0ECF810
:1012B000F078800601D53EA000E03EA0CDE9000513
:1012C0003B46002272210294162000F0E1FCF078E7
:1012D000000601D538A000E038A0CDE900053B4666
:1012E0000022722102942A2000F0D2FCF078C0067D
:1012F00001D533A000E033A0CDE900053B46002234
:10130000722102943E2000F0C3FCF078400601D523
:101310002DA000E02DA0CDE900053B460022722162
:101320000294522000F0B4FCBDE8FF87500000207A
:101330004C583A004C593A0052583A0052593A0027
:1013400053454C4543543A0053544152543A0000DB
:101350004C313A004C323A004C333A0052313A00A8
:1013600052323A0052333A002400002050533220C7
:101370004F46462020202000A1C4000050533220B8
:10138000524544204F4E20005053322052454420B5
:101390004F464600A1FC0000A1C50000A1FD0000D1
:1013A000A1B40000A1FB0000A1B50000A1FA00005B
:1013B000A1F00000A1F10000A1F50000A1F60000DD
:1013C000A1F70000A1F80000A1C10000A1F90000F0
:1013D0000EB50A48C27981798A420DD0C1710C22BA
:1013E0000748CDE90002002102910A464FF6FF733B
:1013F0001621022000F04CFC0EBD00005000002021
:10140000A87300082DE9FF47244D00264FF00C0972
:10141000E979A8794FF0020A4FF6FF7781421BD095
:10142000DFF87C80E8710024E87908EB0411CDE94D
:10143000001904EB8401A04202960AEB810102D15B
:1014400000233A4601E03B460022022000F020FC47
:10145000641CE4B2062CE7D3104D0024B846863550
:10146000A5F10C0735F8140037F8142090420ED07F
:1014700025F8142004EB8401CDE900960AEB8100E5
:10148000CDE90268C1B20423562003F04FF8641C72
:10149000E4B2062CE6D3BDE8FF8700005000002030
:1014A000887200082DE9FF47DFF8148100240C261C
:1014B00098F8072098F8061040464FF6FF778A42C2
:1014C00021D0DFF80091C17100254FF0020A00BF62
:1014D00098F8070005EB8501A84209EB05100AEB17
:1014E0008101029402D100233A4601E03B460022EA
:1014F00000F59870CDE90006022000F0C9FB6D1CD4
:10150000EDB2042DE4D398F80B1098F80A00454684
:1015100081420BD0E872E8B32BA0CDE900063B4630
:10152000002202210294622000F0B2FBB5F91A00F9
:10153000B5F91420904214D06A83002A02DC00BF5F
:10154000C2F1000201DAC2F10002CDE90064CDE986
:1015500002474FF006034FF016014FF05C0002F017
:10156000E5FFB5F91C00B5F91620904215D0AA8305
:10157000002A01DCC2F1000201DAC2F10002CDE969
:101580000064CDE902474FF006034FF02A014FF007
:101590005C0000E011E002F0C9FFE88B2A8B90426A
:1015A00009D0EA83CDE90064CDE9024706233E2154
:1015B0005C2002F0BBFFBDE8FF8705A0ADE700009F
:1015C00050000020887200085374657020000000ED
:1015D00053706565640000002DE9FF476F4C0C26D1
:1015E0000025E179A0794FF4784A04F122074FF6FB
:1015F000FF78814253D0E07169A0CDE900064346EF
:10160000D146524626210295022000F041FBA07BE4
:1016100028B1002264A043460E2102950EE065A089
:10162000CDE90006434600220E210295022000F07B
:101630002FFB6348002243461A210295CDE900069C
:10164000022000F025FB5FA0CDE9000643464A4694
:101650004E210295022000F01BFB5CA0CDE90006A4
:1016600043464A465A210295022000F011FB59A038
:10167000CDE9000643464A4666210295022000F065
:1016800007FB56A0CDE9000643464A467221029563
:10169000022000F0FDFAFF2038707870B870797879
:1016A000207C81420CD0787001283AD04EA0CDE940
:1016B00000060221434600220295084600F0E8FA9F
:1016C0003878627A904209D03A70CDE90065CDE968
:1016D0000258052326214A2002F0D6FEA07858B1F0
:1016E00037484346D430CDE9000652464E21029594
:1016F000382000F0CDFAA570DFF8C490E07809F149
:10170000E80950B1CDF80090CDE901654346524655
:101710005A21382000F0BCFAE5706078022802D027
:101720000DE034A0C3E7264843460C30CDE900065F
:10173000524666210295382000F0AAFA6570207999
:1017400002280AD1CDF80090CDE901654346524602
:101750007221382000F09CFA2571B978607B8142B3
:101760001AD00024C146B87002264FF01008B8788D
:10177000E040C00701D022A100E022A1CDE900187D
:1017800006EB04104B461F2202953A2100F080FA26
:10179000641CE4B2042CEAD3BDE8FF8750000020AB
:1017A0004B45593A00000000573235513332204E34
:1017B0004F202100573235513332205945532100F3
:1017C000F817002055415254323A00005541525406
:1017D000333A000055415254313A000055415254B9
:1017E0003354544C3A00000055415254335F323365
:1017F0003200000055415254335F54544C000000F5
:10180000A1F10000A1F000002DE9FF5F864D00244A
:101810004FF00C08E979A8794FF010094FF6FF76E0
:1018200081426ED0E87105F13C01804803F0D0FDA3
:101830007FA0CDE900094F463346002202210294E1
:10184000062000F025FA7EA0CDE9000733460022ED
:101850002D210294062000F01BFA7DA0CDE900089E
:1018600047463346002242210294022000F010FA3B
:1018700079A0CDE9000742213346002202940846B0
:1018800000F006FA76A0CDE9000733460022522187
:101890000294022000F0FCF973A0CDE90007334662
:1018A000002252210294422000F0F2F970A0CDE90A
:1018B00000073346002262210294022000F0E8F97A
:1018C0006DA0CDE900073346002262210294422038
:1018D00000F0DEF96AA0CDE900073346002272214C
:1018E0000294022000F0D4F967A0CDE90007334646
:1018F000002272210294422000F0CAF9A86A6438DA
:10190000E86249483430017832300288914223D06D
:101910000180002782464FF0020B434830300078A8
:10192000022808D040F23F72BAF80000F840C00721
:1019300004D057A103E04FF47842F5E755A1CDE973
:1019400000190BEB071033460294192100F0A0F99F
:101950007F1CFFB2082FE0D3D5E90A0101F1640230
:101960008A4202D3824204D901E082425AD8884294
:1019700058D2CDE90084CDE90246E86B47460323FF
:10198000027842212C2002F07FFDCDE90074CDE9E0
:101990000246E86B0323422142786C2002F074FD7A
:1019A000CDE90074CDE90246E86B03235221827829
:1019B0002C2002F069FDCDE90074CDE90246E86B08
:1019C00003235221C2786C2002F05EFDCDE9007441
:1019D000CDE90246E86B0323622102792C2002F054
:1019E00053FDCDE90074CDE90246E86B0323622183
:1019F00042796C2002F048FDCDE90074CDE9024641
:101A0000E86B0323722182792C2002F03DFDCDE9A1
:101A10000074CDE90246E86B03237221C2796C2081
:101A200002F032FDBDE8FF9F50000020D41A0020D4
:101A3000547261636B696E67205369676E616C00F5
:101A4000547261636B696E672041646356616C0018
:101A500044415441303A000044415441313A00007D
:101A600044415441323A000044415441333A000069
:101A700044415441343A000044415441353A000055
:101A800044415441363A000044415441373A000041
:101A9000A1F10000A1F000002DE9FF5F3A4D4FF0E9
:101AA00000094FF0020AE979A8794FF6FF7B8142DD
:101AB0002AD0E87100244FF00C084E465746E879CA
:101AC000A0420DD13148029600EB0410E030CDE980
:101AD0000008C4EB041007EB400100235A460CE059
:101AE0002A49C4EB041001EB0411E031CDE90018E0
:101AF000029607EB40015B460022022000F0C8F886
:101B0000641CE4B2042CDAD3DFF87C80002408F1F2
:101B1000660810271C4838F814203430015D404610
:101B20009142194A02F13002125D02D1022A14D008
:101B300024E0022A11D040F23F72039220F81410E0
:101B4000C4EB0410002507EB400600BF38F8140072
:101B5000E840C00704D00EA103E04FF47842ECE760
:101B60000CA18DE8820231460AEB05105B46039A10
:101B700000F08EF86D1CEDB2082DE7D3641CE4B2C2
:101B8000042CC7D3BDE8FF9F5000002088720008D6
:101B9000A1F10000A1F00000704700002DE9FF4F07
:101BA000044683B01020CDE90040DFF8D490002730
:101BB0004FF0800A3348109A07EB071110F81130E4
:101BC0001278934247D100EB410B10989BF801101B
:101BD000407881423FD1002600250BEB0608119882
:101BE000A0B1059AA9F8022098F802302AFA05F166
:101BF0000B4204D0B9F80010104602F0FBFC641C44
:101C00000098A4B2201A102834D00CE098F80210E2
:101C10002AFA05F00142B9F8001001D0059800E059
:101C2000069802F0E7FC6D1CEDB2082DD7D3761CA8
:101C3000F6B2202ED0D304980F30C3B204F10F00B7
:101C4000C2B20498C1B2E0B202F0B0FAB9F8001022
:101C50000D4802F075FA7F1C0198BFB28742A9D3E4
:101C60000021A9F802104FF6FF71A9F8041007B07F
:101C7000BDE8F08F0498009C401C80B20490D6E729
:101C80001000002044700008B40400207047704722
:101C9000FEB508AF97E870008DE8700002F0A6FB73
:101CA000FEBD90F82020012A07D0022A05D0416A03
:101CB00041F48021416201207047006842690A4373
:101CC000426100207047F0B590F820500468A46885
:101CD000012D05D0022D03D0416A41F4802153E04B
:101CE00014F0406F01D1E5004BD5C4F30164022C20
:101CF00003D9416A41F4000146E00125A5401D6079
:101D00008D684FF4C0739DB1CE6835434E6845EA87
:101D1000C605066803EB0417F5514FF4C275076852
:101D200005EB04150E697E51097D012905D009E0F6
:101D30000E88CD6845EA4655EBE701684E5946F4F2
:101D400080764E511179D2F805504FF4C67641EAAB
:101D50000525016806EB04168D511178D2F8012093
:101D60004FF4C47541EA0221026805EB0415515194
:101D7000006803EB0411425842F001024250002077
:101D8000F0BD416A41F4001141620120F0BD000044
:101D900010B590F820300268012B07D0022B05D037
:101DA000416A41F480214162012010BDD2F8000255
:101DB00040F00100C2F80002087D00F01F0301207E
:101DC0009840D2F81C328343C2F81C32CB69B3B9B5
:101DD000D2F80C328343C2F80C328C894B6864F31E
:101DE0001F434C6902EBC404C4F840320C890B68F1
:101DF00064F31F434C6902EBC404C4F84432CB695A
:101E0000012B16D1D2F80C320343C2F80C320C88E5
:101E10004B6864F31F434C6902EBC404C4F84032BE
:101E20000C89CB6864F31F434C6902EBC404C4F80B
:101E300044328B69002BD2F804320FD053EA0003EE
:101E4000C2F804320B69002BD2F8143208D00343D5
:101E5000C2F81432096A012904D008E08343EFE78D
:101E60008343F5E7D2F81C120143C2F81C12D2F8E2
:101E7000000220F00100C2F80002002010BD7047EF
:101E800030B590F82040012C05D0022C03D0416AD7
:101E900041F480215DE00468002955D02469A4073D
:101EA00054D04FF4D874056804EB01142D5915F083
:101EB0000405956005682D594ED0ED0855600568FC
:101EC0002C5904F00204D4604FF4DA74056804EB72
:101ED00001142D5905F00F05156105682D59C5F33D
:101EE0000725956105682C59240C54614FF4DC7268
:101EF000046802EB0112A4581C700468A458240A58
:101F00005C700468A458240C9C700468A258120EDB
:101F1000DA704FF4DE72046802EB0112A4581C71EF
:101F20000468A458240A5C710468A458240C9C71A9
:101F30000468A258120EDA71006881B1016941F09B
:101F400020010161002030BDE468A8E7416A41F446
:101F500000114162012030BD6D0D1560AFE7C16811
:101F600041F02001C160EDE72DE9F05F0546006812
:101F700000244669D0F804908768D0F80CB0D0F8F7
:101F800010A0D0F81880F10748D0F90714D001212B
:101F90008160B80703D5284600F03DFA0CE07807C9
:101FA00002D54FF4006407E0380702D54FF480549F
:101FB00002E0284600F02EFAF80516D529684FF4FD
:101FC00080708860B80503D5284600F026FA0CE03A
:101FD000780502D544F4005407E0380502D544F4EE
:101FE000804402E0284600F017FAF80316D5296865
:101FF0004FF480308860B80303D5284600F00FFA0C
:102000000CE0780302D544F4004407E0380302D51D
:1020100044F4803402E0284600F000FA300707D587
:102020005FEACB6004D52968102044F40074C860CE
:1020300070074FF0080707D55FEA0B7004D52868D2
:10204000C760284600F066F9B00706D52868C06862
:10205000800702D0284600F05FF9700607D55FEAD6
:10206000CA6004D52968102044F480640861B00671
:1020700007D55FEA0A7004D528680761284600F092
:1020800099F9F00606D528680069800702D028462D
:1020900000F091F9B00308D55FEAC96005D5296859
:1020A00010204860284600F087F9F00307D55FEA62
:1020B000097004D528684760284600F0B1F930045B
:1020C00046D55FEA497040D5F00504D55FEAC8708F
:1020D00001D044F00104B00504D55FEA887001D551
:1020E00044F00204700504D55FEA487001D544F05D
:1020F0000404300529D518F0700F26D008F07000C0
:10210000402815D006DC102809D020280AD0302815
:1021100016D10AE050280ED0602811D10EE044F00C
:1021200008040DE044F010040AE044F0200407E045
:1021300044F0400404E044F0800401E044F480747E
:102140002868816921F07001816129680420486054
:10215000002C05D0686A204368622846FFF78FFE8E
:10216000BDE8F09F70B5040003D094F8200010B1D2
:1021700004E0012070BD204600F082F8206801686C
:1021800021F00201016000F0DFFB0546052604E0B6
:1021900000F0DAFB401B0A2811D82068406880074D
:1021A000F6D42068016841F00101016000F0CCFB29
:1021B00005460BE000F0C8FB401B0A2806D9606A00
:1021C00040F40030606284F82060D2E72068406804
:1021D000C007EFD0207E0128206801683DD021F0A3
:1021E00080010160607E01282068016838D021F0FC
:1021F00040010160A07E01282068016833D021F0F1
:1022000020010160E07E0128206801682ED041F0A5
:1022100010010160207F01282068016829D021F089
:1022200008010160607F01282068016824D021F046
:1022300004010160D4E902010843D4E90412114306
:1022400008436168491E08432168C8610020606234
:10225000012084F82000002070BD41F08001C0E71B
:1022600041F04001C5E741F02001CAE721F010012B
:10227000CFE741F00801D4E741F00401D9E70000BD
:1022800010B586B000210091019102910391006880
:102290001C49884233D11C48C16941F00071C161B9
:1022A000C16901F000710491816941F00801816107
:1022B0008069164C00F0080004904FF48070009084
:1022C0006946204600F03EFA601500900220019019
:1022D000032003906946204600F034FA0C48416818
:1022E00021F4C04141F0E06141F4804141600022AD
:1022F0001146142000F094FB142000F083FB06B07C
:1023000010BD00000064004000100240000C0140BD
:102310000000014070470000F0B58DB00BAB04AA7F
:102320000021FFF7ADFD002833D106980799C0B210
:102330008DF800008DF8011008998DF8021004281E
:102340000ED00498039000200BAB02464FEA0D011B
:102350009DF80240844205D90D181C5CEC7003E026
:102360000598EFE70C18E270401CC0B20828EFD3C4
:102370000F4814269DE83C0041784F1CB7FBF6FC43
:1023800006FB1C7790F800C0674504D1684602F050
:102390002AFD0DB0F0BD00EB0111091D81E83C00E4
:1023A0004178491CB1FBF6F206FB12114170F0E7CF
:1023B000B4060020704770477047000070B50446AF
:1023C00090F82000012804D0606A40F40020606288
:1023D00018E0022084F820002068016821F0010143
:1023E000016000F0B1FA05460EE000BF00F0ACFA63
:1023F000401B0A2808D9606A40F40030606205205A
:1024000084F82000012070BD20684068C007EDD12D
:10241000606270BD70477047704770477047704783
:10242000704710B590F821100022022905D0042130
:10243000816380F82020012010BD01680B6823F023
:102440000E030B6001680B6823F001030B6090F82A
:102450004030C46B012101FA03F3636080F821105E
:1024600080F82020104610BD10B590F821100024EF
:10247000022903D00421816301243DE001680A6838
:1024800022F00E020A6001680A6822F001020A6066
:102490001A4A0168914201D1012121E0174A143200
:1024A000914201D110211BE0144A2832914201D1FE
:1024B000891515E0114A3C32914201D189140FE08F
:1024C0000E4A5032914202D14FF4803108E00B4A5B
:1024D0006432914202D14FF4801101E04FF08071DB
:1024E000064A083A5160012180F82110002180F845
:1024F0002010416B01B18847204610BD0800024002
:102500002DE9F05FC16B0C6801680B68D0F840C022
:10251000042202FA0CF2494DDFF824A1494E4A4F39
:10252000DFF828B1DFF828E122422CD05A072AD55B
:102530000A68920603D40A6822F004020A6001685D
:10254000A94201D1042219E0514501D1402215E0F0
:10255000B14202D14FF4806210E0B94202D14FF48F
:1025600080420BE0594502D14FF4802206E07145CC
:1025700002D14FF4800201E04FF080622F49083908
:102580004A60C16A3BE04FF0020808FA0CF818EA0A
:10259000040F4FF000094FF0010235D05FEA837855
:1025A00032D50B689B0605D40B6823F00A030B6039
:1025B00080F821200168A94201D1022219E0514589
:1025C00001D1202215E0B14202D14FF4007210E097
:1025D000B94202D14FF400520BE0594502D14FF4F9
:1025E000003206E0714502D14FF4001201E04FF0D5
:1025F0000072124908394A6080F82090816A0029E7
:102600001AD0BDE8F05F0847082505FA0CF5254209
:1026100012D01B0710D50B6823F00E030B6090F847
:102620004010C36B02FA01F15960826380F82120E7
:1026300080F82090016BE2E7BDE8F09F08000240BF
:102640001C0002403000024044000240580002409A
:102650006C00024030B528B308C81349142219444D
:10266000B1FBF2F18900C163104981630221417716
:102670001A6843F6F0718A43D0E900142143D0E987
:1026800002452C4321430469214344692143846961
:1026900021431143196000214163012242770177F0
:1026A000084630BD012030BDF8FFFDBF00000240EC
:1026B00070B5044690F82000002501280CD00120B8
:1026C00084F8200094F821600020012E06D084F8C0
:1026D00020000225284670BD022070BD022684F825
:1026E0002160A0632068066826F001060660204687
:1026F000FEF702FAE06A00282068016802D041F083
:102700000E0106E021F0040101602068016841F03B
:102710000A0101602068016841F001010160D9E708
:1027200070B5044600F010F90546601C02D004485C
:102730000078044400F008F9401BA042FAD370BDB1
:10274000000000202DE9F84FDFF8B891002409F1CE
:10275000040A0AF1040B23460F270BF1040EC9E00B
:102760000125A5402A40AA427DD1674ED1F804C078
:10277000ACEB0608B44532D014DCBCF1030F3AD000
:1027800009DCBCF1000F2AD0BCF1010F1CD0BCF158
:10279000020F31D11DE0BCF1110F17D0BCF1120FA7
:1027A0002AD119E0B8F5881F19D006DCB8F5803FAA
:1027B00015D0B8F5801F1FD111E0B8F5001F0ED05D
:1027C000B8F5041F18D10AE0CB6815E0CB681B1DD3
:1027D00012E0CB6808330FE0CB680C330CE08B6859
:1027E0002BB1012B4FF0080303D0456104E0042313
:1027F00002E0056100E00023FF2A01D8064601E05F
:1028000000F104064FEA840501D9A5F12005D6F8A8
:10281000008007FA05FC28EA0C0803FA05F548EAE7
:102820000508C6F800804D68ED0062D5374DAE69E9
:1028300046F00106AE61AD6924F0030605F001051E
:102840000095334D06EB050CDCF80850A607360F53
:1028500007FA06F825EA0805DFF8B880404503D1F5
:102860004FF0000817E044E0DFF8AC80404502D1AB
:102870004FF001080FE0DFF8A480404502D14FF08F
:10288000020808E0DFF89880404502D14FF00308C5
:1028900001E04FF0040808FA06F848EA0508CCF809
:1028A00008804D68D9F80060ED034D4601D5164308
:1028B00000E096432E604D68DAF80060AD0355469F
:1028C00001D5164300E096432E604D68DBF80060AA
:1028D000ED025D4601D5164300E096432E604D683B
:1028E000DEF80060AD02754601D5164300E0964360
:1028F0002E60641C0D682A46E5407FF431AFBDE8C8
:10290000F88F000000040140000011100010024088
:102910000000014000080140000C0140001001408F
:10292000001401408068084000D001207047C26850
:102930000A4201D041617047016170470AB10161EB
:1029400070470904FBE700000148806870470000F9
:1029500000000020024881680278114481607047BD
:1029600000000020074810B5016841F01001016027
:10297000032000F075F8002000F006F800F024F8BD
:10298000002010BD0020024070B50D4D04464FF4EC
:102990007A712878B1FBF0F00A490968B1FBF0F0D0
:1029A00000F025FD48B9102C07D200222146501E08
:1029B00000F036F800206C6070BD012070BD000092
:1029C000000000200C0000200C4808B5816941F08F
:1029D00001018161816901F001010091C16941F04A
:1029E0008051C161C06900F0805000900448416886
:1029F00021F0E06141F00071416008BD001002402B
:102A000000000140002809DB00F01F020121914075
:102A10004009800000F1E020C0F80011704700007C
:102A2000F0B40E4B1B680C46C3F30223C3F1070539
:102A3000042D00D90425191D072901D2002300E027
:102A4000DB1E012606FA05F1491E214099409E40F1
:102A5000761E16403143F0BC03F038BC0CED00E0AC
:102A6000064900F0070208684FF6FF03184040EAE5
:102A70000220034A10430860704700000CED00E09C
:102A80000000FA052DE9F0470F46050061D0434EDE
:102A9000306800F00700B84209D2306820F0070023
:102AA00038433060306800F00700B84251D12868E0
:102AB0003B4C810712D5400703D5606840F4E060C5
:102AC00060602878000703D5606840F4605060605B
:102AD0006068A96820F0F000084360602878C007AB
:102AE00028D06868012810D02168022810D08907F2
:102AF00000292EDA616821F0030101436160FFF7CC
:102B000023FF804641F288390DE021688903EFE711
:102B10008901EDE7FFF718FFA0EB0801494502D94D
:102B20000320BDE8F0876068696800F00C00B0EB36
:102B3000810FEFD1306800F00700B8420BD9306840
:102B400020F0070038433060306800F00700B842DA
:102B500001D00120E5E72878400705D56068E968DD
:102B600020F4E060084360602878000706D56068BC
:102B7000296920F4605040EAC100606000F038F834
:102B80006168084AC1F30311515CC84006490860F6
:102B900006480068FFF7F8FE0020C2E70020024068
:102BA00000100240A86500080C000020040000206E
:102BB0000448054900684968044AC1F30221515C90
:102BC000C84070470C00002000100240B8650008A3
:102BD0000448054900684968044AC1F3C221515CB0
:102BE000C84070470C00002000100240B865000883
:102BF00012A185B00FC98DE80F0014A0144A006817
:102C000004905168134801F00C03042B10D0082BDA
:102C10000ED1C1F38343C9031DF803000AD55168DF
:102C200004AAC1F34041515C0A4A5043B0FBF1F0A1
:102C300005B0704708494843FAE70000020304055D
:102C4000060708090A0B0C0D0E0F101001020000F8
:102C50000010024000127A0000093D002DE9F84FF3
:102C6000040070D02078C04DC00749D06868C0F318
:102C70008100012807D06868C0F38100022809D1CB
:102C80006868C00306D52868800339D560680028C5
:102C9000E7D035E06068B0F5803F0BD010B1B0F5FB
:102CA000A02F11D0286820F480302860286820F4F4
:102CB000802002E0286840F480302860606890B18D
:102CC000FFF742FE06460AE0286840F480202860AC
:102CD000F0E700BFFFF738FE801B642873D8286830
:102CE0008003F7D50CE0FFF72FFE064605E000BF96
:102CF000FFF72AFE801B6428F0D828688003F7D4E9
:102D000020789A4E80074FF001094FF0000839D51E
:102D1000686810F00C0F07D06868C0F381000228C3
:102D200009D16868C00306D42868800714D52069D3
:102D3000012808D110E02069B0B1C6F80090FFF773
:102D400003FE074605E00AE1FFF7FEFDC01B02286F
:102D5000C4D828688007F7D52868616920F0F80092
:102D600040EAC10028600DE0C6F80080FFF7ECFDE6
:102D7000074604E0FFF7E8FDC01B022823D82868B7
:102D80008007F7D4207800072CD57948A169D9B1FC
:102D9000C0F80090FFF7D8FD074604E0FFF7D4FD28
:102DA000C01B02280FD8686A8007F7D571484FF416
:102DB000FA510068B0FBF1F0009000BF0098411E8E
:102DC0000091FAD20EE080E0C0F80080FFF7BCFD71
:102DD000074604E0FFF7B8FDC01B022875D8686AF3
:102DE0008007F7D42078400760D5E8690027C00045
:102DF00008D4E86940F08050E861E869012700F0F4
:102E0000805000905C480168C90513D4016883466E
:102E100041F480710160FFF797FD824606E000BF34
:102E2000FFF792FDA0EB0A0064284ED8DBF8000003
:102E3000C005F5D5E06801280AD008B1052813D0EF
:102E4000286A20F001002862286A20F0040002E0CD
:102E5000286A40F001002862E06841F2883B98B19E
:102E6000FFF772FD82460BE0286A40F004002862FA
:102E7000EEE700BFFFF768FDA0EB0A0159455AD8FD
:102E8000286A8007F6D50CE0FFF75EFD824605E074
:102E9000FFF75AFDA0EB0A0159454CD8286A800774
:102EA000F6D41FB1E86920F08050E861E06988B38A
:102EB0006968C1F38101022944D00228C6F8608004
:102EC00004D0FFF741FD044638E034E0FFF73CFD55
:102ED000074604E0FFF738FDC01B02282BD82868FE
:102EE0008001F7D4206AB0F5803F05D16868A168F9
:102EF00020F4003008436860D4E908010843696899
:102F000021F4741108436860C6F86090FFF71CFD57
:102F1000044606E025E000BFFFF716FD001B02286F
:102F200009D828688001F7D51BE000BFFFF70CFD2A
:102F3000001B022802D90320BDE8F88F2868800111
:102F4000F4D40EE00128F7D06868226A00F48031DA
:102F5000914204D1616A00F47010884201D00120CE
:102F6000EAE70020E8E700000010024000004242CB
:102F7000800442420C0000200070004070B5040044
:102F800005D00025A56294F8510010B106E001209B
:102F900070BD84F85050204600F02EF8022084F8CE
:102FA00051002068016821F040010160D4E901016D
:102FB0000843D4E903121143084361690843218B94
:102FC00001F400710843E1690843216A0843A16ADA
:102FD000084321680860A069042101EA10402168C3
:102FE00048602068C16921F40061C1616565012004
:102FF00084F85100002070BD30B585B000240094E5
:10300000019402940394254D03682548022103226C
:10301000AB421AD1836943F480538361836903F41B
:1030200080530493836943F00403836180691D4DD9
:1030300000F004000490A020CDE90001039269464D
:103040002846FFF77FFB40201EE0174DAB4222D100
:10305000C36943F48043C361C36903F480430493A9
:10306000836943F0080383618069104D00F0080014
:1030700004904FF42040CDE90001039269462846B0
:10308000FFF760FB4FF48040CDE900046946284615
:103090000294FFF757FB05B030BD0000003001403F
:1030A000001002400008014000380040000C0140C0
:1030B0002DE9F84F044690F8500000271D461646AB
:1030C000894601280DD04FF0010B84F850B0FFF76E
:1030D0003BFC804694F85100BA46012804D00227F0
:1030E0008EE00220BDE8F88FB9F1000F7DD0002EF0
:1030F0007BD0032084F85100C4F854A0C4F8309069
:10310000A686E686C4F838A0A4F83CA0A4F83EA0A1
:10311000C4F844A0C4F840A0A068B0F5004F04D1A2
:103120002068016841F48041016020680168490617
:1031300003D4016841F040010160E068B0F5006F20
:10314000606803D030B3012E24D040E008B1012ED6
:103150001CD1206B21680088C86006E02068816867
:10316000890709D5216B0988C160206B801C206309
:10317000E08E401EE08609E0FFF7E6FBA0EB0800CA
:10318000A84202D3681C01D031E07DB3E08E002854
:10319000E4D11FE0206B21680078087306E0206806
:1031A0008168890709D5216B09780173206B401C60
:1031B0002063E08E401EE08609E0FFF7C5FBA0EB30
:1031C0000800A84202D3681C01D010E075B1E08E5F
:1031D0000028E4D142462946204602F0ABF908B166
:1031E00020206065A06820B107E008E0FFE7032722
:1031F00006E02068C16880680090606D00B101271A
:1032000084F851B084F850A038466BE72DE9F84FA8
:10321000044690F8500000270A9E1D4692468B46B1
:103220004FF0010901280ED0012084F85000FFF76B
:103230008BFB804694F85100616801280CD0B1F5F1
:10324000827F07D102E00220BDE8F88FA16809B9AA
:10325000042801D00227C2E0BBF1000F27D0BAF149
:10326000000F24D01DB394F85100042802D005208B
:1032700084F8510000206065C4F838A0E587A58770
:10328000C4F830B0E586A5862064606420680168D3
:10329000490603D4016841F040010160E068B0F5DF
:1032A000006F606805D0E8B3012D46D07FE00127AC
:1032B00095E008B1012D39D1206B21680088C860E4
:1032C000206B801C2063E08E401EE0862EE020688C
:1032D000816889070FD5E18E69B1B9F1010F0AD173
:1032E000216B0988C160206B801C2063E08E401E2A
:1032F000E0864FF0000920688168C9070CD0E18F93
:1033000051B1C068A16B0880A06B801CA063E08FE6
:10331000401EE0874FF00109FFF716FBA0EB080005
:10332000B04200E009E001D3701C50D1E08E0028CB
:10333000CDD1E08F0028CAD13FE0206B2168007812
:103340000873206B401C2063E08E401EE0862EE058
:103350002068816889070FD5E18E69B1B9F1010F45
:103360000AD1216B09780173206B401C2063E08E29
:10337000401EE0864FF0000920688168C9070CD024
:10338000E18F51B1C068A16B0870A06B401CA063B5
:10339000E08F401EE0874FF00109FFF7D5FAA0EB60
:1033A0000800B04202D3701C01D010E07EB1E08E64
:1033B0000028CDD1E08F0028CAD1424631462046B0
:1033C00002F0B8F828B101272020606507E0032744
:1033D00005E0A06818B92068C168806800900120E5
:1033E00084F85100002084F8500038462CE710B5CE
:1033F000401EB0F1807F01D3012010BD4FF0E024CA
:1034000060610F21601702F061FF0020A0610720BA
:103410002061002010BD7047704770B590F83C20C7
:10342000012A19D0012400F83C4F0222427050F8C2
:103430003C3C5A689D6822F070060A68496832432D
:1034400025F0800529435A6050F83C2C9160447067
:1034500000210170084670BD022070BD10B5040047
:1034600003D094F83D0010B107E0012010BD00200A
:1034700084F83C00204600F00DF8022084F83D005E
:10348000211D206802F0BEFB012084F83D000020D1
:1034900010BD000008B501681448B1F1804F14D088
:1034A000134A914220D1C16941F00201C161C06952
:1034B000002200F00200009011461D20FFF7B0FA34
:1034C0001D20BDE80840FFF79DBAC16941F0010128
:1034D000C161C069002200F00100009011461C206B
:1034E000FFF79EFA1C20ECE708BD00000010024028
:1034F000000400400168CA6842F00102CA60006826
:10350000816801F00701062903D0016841F001013B
:1035100001600020704770B5044690F83C00012817
:1035200017D0012584F83C50022084F83D00206823
:10353000826822F0770222F47F4282600868502875
:1035400030D00DDC20284DD005DC98B310283BD1BD
:1035500048E0022070BD302844D0402834D139E002
:10356000602828D0702806D0B0F5805F2CD0B0F548
:10357000005F29D10AE0CB68D1E90121206802F07F
:1035800077FB2068816841F0770109E0CB68D1E9D9
:103590000121206802F06CFB2068816841F48041C1
:1035A000816011E0CA684968206802F073FB50210D
:1035B000206807E016E0CA684968206802F07BFBD3
:1035C0006021206802F05EFB84F83D50002084F802
:1035D0003C0070BDCA684968206802F05BFB40216E
:1035E0002068EFE7226801461046EBE7704770B5A8
:1035F0000446006801694FF00005C943890715D4E6
:10360000C168C943890711D4E91E016101202077EF
:10361000206880698007204602D0FFF7E7FF04E0BA
:1036200000F098F8204600F096F8257720680169A8
:10363000C943490717D4C168C943490713D46FF078
:1036400004010161022020772068806910F4407F26
:10365000204602D0FFF7CAFF04E000F07BF82046C6
:1036600000F079F8257720680169C943090716D465
:10367000C168C943090712D46FF008010161042031
:1036800020772068C0698007204602D0FFF7AEFF90
:1036900004E000F05FF8204600F05DF82577206830
:1036A0000169C943C90617D4C168C943C90613D4FF
:1036B0006FF010010161082020772068C06910F4C4
:1036C000407F204602D0FFF791FF04E000F042F86F
:1036D000204600F040F8257720680169C943C907F2
:1036E00008D1C168C943C90704D1891E01612046B8
:1036F00000F032F820680169C943090609D4C1689D
:10370000C943090605D46FF0800101612046FFF727
:1037100082FE20680169C943490609D4C168C943CA
:10372000490605D46FF040010161204600F02CF8F5
:1037300020680169C94389060BD4C168C943890659
:1037400007D46FF0200101612046BDE87040FFF70B
:1037500063BE70BD7047704708490A680168084831
:103760008A4201D1006804E0064A12688A4203D105
:103770004068002800D00047704700001C0200206D
:103780001C000020DC010020704710B504460068D2
:10379000416994F83920C1F3C011212A0BD151B1EC
:1037A000416921F080014161206B08B1FEF739FECB
:1037B000204602F01BFC2068416994F83A20C1F3CE
:1037C0008011222A0BD151B1416921F040014161A0
:1037D000606B08B1FEF725FE204602F0F9FB0020E1
:1037E00010BD704770B5026804461068D16853690F
:1037F00010F00F0F50D003F0010501F4907635431F
:103800005DD0C20705D0CA0503D5E26B42F00102C4
:10381000E263420705D5DA0703D0E26B42F0020209
:10382000E263820705D5DA0703D0E26B42F00402B7
:10383000E263020705D5DA0703D0E26B42F0080223
:10384000E263E26B002A33D0800604D5880602D5F5
:10385000204602F0D4FB20684069E16BC0F3801081
:10386000090700D428B3204602F0B2FB2068416962
:1038700049061AD5416921F040014161606BA0B150
:103880001B494163606BFEF7EFFD002810D0606BB1
:10389000416BBDE870400847830610D58B060ED5F6
:1038A0002046BDE8704002F0AABB2046FFF799FF12
:1038B00070BD2046FFF795FF0020E06370BD030652
:1038C00006D50B0604D52046BDE8704002F03EBC8C
:1038D0004006F3D54806F1D5D168204621F04001D5
:1038E000D160202184F8391000F0A0FA70BD0000EA
:1038F000F95E000870B5040004D094F83900002582
:1039000010B106E0012070BD84F83850204600F068
:1039100023F8242084F839002068C16821F400517C
:10392000C160204602F0B6FB2068016921F4904195
:1039300001612068416921F02A0141612068C16864
:1039400041F40051C160E563202084F8390084F817
:103950003A00002070BD00002DE9F04786B0002538
:1039600000950195029503950446DFF84882D0F84A
:1039700000C0914802210322904B202780264FF45B
:10398000806A4FF01009C44557D1D0F818C04CF4E4
:10399000804CC0F818C0D0F818C00CF4804CCDF89A
:1039A00010C0D0F818C04CF0040CC0F818C08069E2
:1039B000039200F0040004900802CDE9000169467A
:1039C00098461846FEF7BEFECDE900A5694640467A
:1039D0000295FEF7B7FEDFF8EC8179494046C0E971
:1039E0000015C0E90256C8F81050C8E90557C8F8D4
:1039F0001C50FEF72FFE08B1FEF7CEF8714FC4F849
:103A000034804437C8F82440C7E902563D616C4809
:103A10007D61BD611438FD61C7E900093846FEF7D4
:103A200019FE08B1FEF7B8F82763002211462520D9
:103A30007C62FEF7F5FF25205EE0DFF88C81C4454F
:103A40005FD1D0F81CC04CF4003CC0F81CC0D0F8CA
:103A50001CC00CF4003CCDF810C0D0F818C04CF0DD
:103A6000040CC0F818C08069039200F004000490B0
:103A70000420CDE90001694698461846FEF762FE2B
:103A80000820CDE90005694640460295FEF75AFE3A
:103A9000DFF830814A4908F1880840461431C0E90E
:103AA0000015C0E90256C8F81050C8E90557C8F813
:103AB0001C50FEF7CFFD08B1FEF76EF8414FC4F879
:103AC0003480CC37C8F82440C7E902563D613C48F1
:103AD0007D61BD612830FD61C7E900093846FEF708
:103AE000B9FD08B1FEF758F82763002211462620D9
:103AF0007C62FEF795FF2620FEF784FF06B0BDE846
:103B0000F087324B9C45F9D1C36943F48023C361EC
:103B1000C36903F480230493836943F0080383613A
:103B20008069CDE900A100F00800CDE90320DFF8AD
:103B3000A08069464046FEF705FE4FF40060CDE9DF
:103B40000005694640460295FEF7FCFDDFF88480DB
:103B50001B4940462839C0E90015C0E90256C8F89B
:103B60001050C8E90557C8F81C50FEF773FD08B19E
:103B7000FEF712F8174FC4F834804437C8F82440D1
:103B8000C7E902563D610E487D61BD613C38FD616B
:103B9000C7E900093846FEF75DFD08B1FDF7FCFFF7
:103BA00027630022114627207C62FEF739FF272079
:103BB000A2E7000000380140001002400008014068
:103BC000580002401C030020004400400048004010
:103BD000000C01402C040020F8B5044690F83A008F
:103BE00020283CD1C1B3BAB394F83800012836D0AC
:103BF000012084F83800A162A2850025E563222017
:103C000084F83A00636B17489862636B1648D86271
:103C1000636B16481863606B134645630846666B12
:103C2000216802463046091DFEF742FD2068016802
:103C30004168009184F83850C16841F48071C160D6
:103C40002068416941F0010141612068416941F00A
:103C5000400141610020F8BDFFE70120FBE70220A1
:103C6000F9E70000535F00088F5F0008095F000854
:103C700090F83A30202B22D1F9B1F2B190F83830D7
:103C8000012B1CD081628285C2850021C163222262
:103C900080F83A2080F838100168CA6842F48072CF
:103CA000CA6001684A6942F001024A610068C1685D
:103CB00041F02001C16000207047012070470220C0
:103CC0007047000010B508490068096888420AD1A9
:103CD0000648406800B18047BDE810400122034912
:103CE0000148FFF7C5BF10BD5C0200204400002062
:103CF00070472DE9F843044690F839001F461646F0
:103D00000D46202850D1A5B19EB194F83800012865
:103D10004AD0012084F838004FF00008C4F83C80F5
:103D2000212084F83900FEF70FFEA6848146E68440
:103D300026E00120BDE8F883E08C401EE084A06806
:103D40004B46B0F5805F4FF000024FF080012046F7
:103D5000009703D002F02BFAE8B90DE002F027FA41
:103D6000C8B928882168C0F308004860206908B1F4
:103D70006D1C05E0AD1C03E0216815F8010B4860DF
:103D8000E08C0028D8D14B460022402120460097E5
:103D900002F00DFA08B10320CCE7202084F83900A6
:103DA00084F838800020C5E70220C3E770B50446D8
:103DB00090F83900202830D169B362B394F8380004
:103DC00001282AD0012084F838002162A284E284EC
:103DD0000025E563212084F83900236B10489862A0
:103DE000236B1048D862236B0F481863206B13466F
:103DF00045632668206B321DFEF75AFC21686FF080
:103E00004000086084F838502068416941F0800122
:103E10004161002070BD012070BD022070BD000016
:103E2000995F0008C75F0008095F00087047704786
:103E300000B58BB000200121CDE90601059000906E
:103E400001900290039004900E20CDE9081069467D
:103E50000A48FDF79DFF08B1FDF79EFE0748FEF7F3
:103E6000ADFA08B1FDF798FE02210448FDF719FFED
:103E7000002801D0FDF790FE0BB000BD040100202A
:103E8000FEE7000002488068C00700D001207047AC
:103E90000010014003488068800701D50120704769
:103EA000002070470010014003488068400701D59A
:103EB00001207047002070470010014003488068CF
:103EC000000701D501207047002070470010014015
:103ED00010B500244FF470710948FCF73CF908490B
:103EE000204600F099FF064901F07EFA044901F0EE
:103EF0005FFA034901F040F8282800D9FEE710BD19
:103F00004C1B002010B58079012806D008280ED15E
:103F1000BDE810400020FCF73DBF054C0549A06BF3
:103F2000884202D00020FCF735FF0120607210BDEE
:103F300050000020D91500088079012805D10349D7
:103F4000022048720020FCF7EDBD704750000020B1
:103F500010B58079012805D10020FCF7EBFE02495D
:103F60000320487210BD00005000002038B5807951
:103F7000124C012810D00125042810D008280AD19D
:103F80000F49A06B884206D100231A4619460D48F6
:103F9000009501F066F938BD0420607238BDFCF769
:103FA0008BFE0949A06B8842F8D1E07B022802D041
:103FB0000220E07338BDE57338BD000050000020DA
:103FC000A5140008601A0020D915000870B5807982
:103FD000012818D1FCF7AEFE0B4C0C49A06B8842AF
:103FE0000FD1207C0125012805D125710B2104F179
:103FF0006E00FCF7BDFA04480B216E30FCF7CAFADC
:1040000065700520607270BD50000020D915000851
:1040100010B58079012804D1FCF7BCFE01490620C7
:10402000487210BD500000208079012805D1034955
:10403000072048720120FCF775BD70475000002032
:1040400003480068C00601D5012070470020704772
:10405000080C014003480068800601D50120704724
:1040600000207047080C014003480068400601D555
:104070000120704700207047080C01400348006889
:10408000000601D50120704700207047080C014050
:1040900003488068800401D50120704700207047E4
:1040A0000010014003488068400401D5012070479A
:1040B000002070470010014003488068000401D5CB
:1040C0000120704700207047001001402DE9F041A9
:1040D000ADF5047D05464FF404716846FCF73BF8E6
:1040E000FCF7C1FC00242E0AE846EDB24FF48477B9
:1040F0000021404600EB410200F81160491C89B2E2
:104100005570B942F6D3684600F01AF8641CA4B2A0
:10411000422CEDD30DF5047DBDE8F08103498422E6
:1041200000B1012088700A704A70704716000020A4
:104130000246012000E05043491EC9B2FBD270473D
:104140002DE9F041104E0C4605460122042130466F
:10415000FEF7F4FBB714002239463046FEF7EEFBBB
:104160004FF6FF7000EA44024FF47A73294607487D
:10417000FEF79EFF012239463046FEF7DFFB044979
:1041800000200880BDE8F081000C0140840100207F
:104190001000002001B50323012269460248FEF702
:1041A00087FF002008BD0000840100202DE9F041B8
:1041B00004461D4616460F462A2000F02BFA002022
:1041C00000F042FA204600F03FFA002000F03CFAEE
:1041D000304600F039FA2B2000F01CFA002000F0E5
:1041E00033FA384600F030FA002000F02DFA284665
:1041F00000F02AFABDE8F0412C2000F00BBA0000D4
:104200002DE9FF4F81B08846DDE90E1504462039BF
:10421000C8B2109B0E909146C3464FF0000093B376
:1042200082E00C2D0FD06D480E9900EB011100BFFC
:1042300011F80A7000202646009038060AD5684911
:10424000A1F8029009E00E9800EB4001654800EBF0
:104250008101EDE762480499418061480188408806
:1042600000F0C8F97806761C070EB6B2301BA842DB
:104270000AD108F101001FFA80F85948801D017821
:10428000414542D90BE00DE05548801D017841457C
:104290003BD90098401CC0B200900828CDD30AF149
:1042A0000100C0B28246A842BBD340E00C2D20D012
:1042B0004A480E9900EB0111002011F80A702646B9
:1042C0000090380604D546480188408800F092F9ED
:1042D0007806761C070EB6B2301BA84210D108F142
:1042E00001001FFA80F83E48801D017841450CD935
:1042F00017E00E9800EB40013A4800EB8101DBE744
:104300003748801D4178414505D83549A1F80290CC
:1043100005B0BDE8F08F0098401CC0B2009008289E
:10432000CFD30AF10100C0B28246A842BED32C4EC0
:1043300000200C2D70804FF6FF70B0804FF02A00E7
:104340002DD000F067F9002000F07EF9E0B200F017
:104350007BF9002000F078F904EB5500401EC0B254
:1043600000F072F92B2000F055F9002000F06CF9F4
:104370000BF0FF0000F068F9002000F065F90BEB8E
:104380000500401EC0B200F05FF92C2000F042F999
:10439000318805B01448BDE8F04FFFF7D1BE00F0FA
:1043A00039F9002000F050F9E0B200F04DF900209A
:1043B00000F04AF9E41DE0B200F046F92B2000F0CD
:1043C00029F9002000F040F90BF0FF0000F03CF963
:1043D000002000F039F90BF10B00D3E7346A000834
:1043E00010000020C0650008B40400202DE9FF4F34
:1043F00083B00E46DDE910750446804639782148C1
:10440000DDF848A09B46002924D0814699F8001089
:10441000A1EB5502A24202DA721996B2444699F80B
:104420000100421BB24215DB3878802815D9481BA1
:10443000A0420FDBB2420DDBCDE9007A5B4631468C
:104440002046059AFDF7AAFB103417F8021FA4B204
:104450000029DBD107B0BDE8F08F0D280DD08DE825
:1044600021045B4631462046059AFFF7C9FE04EB5E
:10447000550084B217F8011FEAE7701986B2444666
:10448000F8E70000160000202DE9FF4F83B0DFF8A9
:104490009890DDE9105B1299A9F8021013991F4654
:1044A00082464FF00008A9F804100C2D00D010250A
:1044B00000240BF0010629E0381B401EC1B20A207F
:1044C000FFF736FE0599B1FBF0F00A21B0FBF1F2DF
:1044D00001FB1200B8F1000F05D1791E8C4202DAFF
:1044E00020B14FF001083030C0B203E05FEA0B604A
:1044F00018D530208DE861006908DDE9122301FB41
:1045000004A00499FFF77CFE641CE4B2BC42D3D340
:104510000021A9F802104FF6FF71A9F8041007B0A6
:10452000BDE8F08F2020E5E7100000202DE9FF4FC7
:1045300083B0DFF8BCB0109D1299ABF802104FF0B9
:10454000000913991F461646C846ABF804100C2DF7
:1045500000D01025002E02DB4FF0010800E056428B
:104560001198002400F0010A31E0381B401EC1B24E
:104570000A20FFF7DDFDB6FBF0F00A21B0FBF1F2F7
:1045800001FB1200B9F1000F05D1791E8C4202DA4D
:1045900038B14FF001093030C0B28DE8210469080C
:1045A0000BE01198000601D5302103E0B8F1000FAF
:1045B00019D020218DE8220469080398DDE912232F
:1045C00001FB04000499FFF71BFE641CE4B2BC422B
:1045D000CBD30021ABF802104FF6FF71ABF80410FB
:1045E00007B0BDE8F08F4FF001082D21E2E7000091
:1045F00010000020054A030A02F8113002EB4101C5
:10460000487003490888401C08807047B4040020A3
:104610001000002070B50B4C0646002204212046F5
:10462000FEF78CF9A514002229462046FEF786F9EC
:104630003046FFF7AFFD29462046BDE87040012215
:10464000FEF77CB9000C014070B50B4C0646012208
:1046500004212046FEF772F9A514002229462046BF
:10466000FEF76CF93046FFF795FD29462046BDE878
:1046700070400122FEF762B9000C014010B50446FB
:10468000000AFFF7E1FFE0B2BDE81040FFF7DCBF32
:10469000104810B50E4901600921416000214FF416
:1046A00000328160C0E903124FF44012426101768A
:1046B000417681760122C27601774177FDF752FD7E
:1046C000002803D0BDE81040FDF766BA10BD000019
:1046D00000640040040100201D4808B5416941F014
:1046E000010141614069002200F001000090114683
:1046F0000C20FEF795F90C20FEF784F900221146F4
:104700000D20FEF78DF90D20FEF77CF900221146F1
:104710000E20FEF785F90E20FEF774F900221146EF
:104720000F20FEF77DF90F20FEF76CF900221146ED
:104730001020FEF775F91020FEF764F900221146EB
:104740001120FEF76DF9BDE808401120FEF75AB9B7
:10475000001002402DE9F04786B00025474800953B
:10476000019502950395816941F01001816181698C
:1047700001F010010491816941F02001816181699A
:1047800001F020010491816941F004018161816996
:1047900001F004010491816941F00801816180699F
:1047A000DFF8DC8000F00800049000224FF48971EB
:1047B0004046FEF7C3F8DFF8CCA041F20F07002215
:1047C00039465046FEF7BAF8DFF8BC900122C02106
:1047D0004846FEF7B3F8002239114846FEF7AEF816
:1047E0000122D1034046FEF7A9F84FF46040CDE91D
:1047F00000050124694602944846FDF7A3FF40F2F4
:104800000F20CDE90005694648460295FDF79AFF5D
:10481000CDE90045694640460294FDF793FF48F212
:104820000200CDE900040226CDE902466946404671
:10483000FDF788FF4FF488708DE8710069464046A7
:10484000FDF780FFCDE90074CDE902466946504688
:10485000FDF778FF4FF4E0708DE871006946484637
:10486000FDF770FFF020CDE900056946029450463F
:10487000FDF768FF06B0BDE8F087000000100240B9
:1048800000080140000C014000100140104810B524
:104890000E4901604FF48271416000218160C16066
:1048A0004FF400720161C0E905120822C0E9072136
:1048B000416281620A21C162FEF760FB002803D0D9
:1048C000BDE81040FDF768B910BD000000300140A0
:1048D0002C0100200F4810B50D4901604FF4827182
:1048E000416000218160C1604FF400720161C0E944
:1048F0000512C1610162416281620A21C162FEF753
:104900003DFB002803D0BDE81040FDF745B910BDC0
:10491000003800408401002010B586B000241648FD
:10492000009401940294039404944FF08041059400
:1049300001604721C0E9011440F2E731C0E90314E6
:104940008461FEF78BFD08B1FDF726F94FF4805026
:10495000009069460848FEF7DEFD08B1FDF71CF936
:10496000049404A904480594FEF757FD002801D0DB
:10497000FDF712F906B010BDDC01002010B586B0BD
:10498000002417480094019402940394049413495A
:10499000059401604721C0E9011440F2E731C0E904
:1049A00003148461FEF75AFD08B1FDF7F5F84FF4E2
:1049B0008050009069460A48FEF7ADFD08B1FDF74A
:1049C000EBF8049404A906480594FEF726FD002898
:1049D00001D0FDF7E1F806B010BD00000004004072
:1049E0001C0200200C4810B50A4901604FF4E13167
:1049F0004160002181600C22C160C0E90412816124
:104A0000C161FEF777FF002803D0BDE81040FDF735
:104A1000C3B810BD003801405C0200200C4810B53E
:104A20000A4901604FF4E1314160002181600C22AC
:104A3000C160C0E904128161C161FEF75BFF00281B
:104A400003D0BDE81040FDF7A7B810BD00440040FA
:104A50009C0200200C4810B50A4901604FF4E13176
:104A60004160002181600C22C160C0E904128161B3
:104A7000C161FEF73FFF002803D0BDE81040FDF7FD
:104A80008BB810BD00480040DC020020FEE77047F4
:104A900005480021FF22017041708270C2700171CF
:104AA00041718171C1717047240000202DE9F843E4
:104AB00006460120ADF800000024ADF800004FF4D8
:104AC00080781E4D4FF400794FF6FF772FE000BF3E
:104AD000BDF80000304201D0012200E00022414632
:104AE0002846FDF72BFF012240212846FDF726FF2F
:104AF0000A2001F0D5FC002240212846FDF71EFFC8
:104B00000A2001F0CDFC012240212846FDF716FFC6
:104B100049462846FDF706FF18B1BDF800002043BE
:104B2000C4B2BDF8000007EA4000ADF80000BDF8CF
:104B30000000FF28CCD92046BDE8F88300100140D2
:104B40002DE9FE4300208DF808000125ADF8005046
:104B50002B4E024680213046FDF7F0FE0120FFF784
:104B6000A5FF4220FFF7A2FF264F38708DF80850AE
:104B70003AE00024ADF800504FF400794FF6FF788A
:104B800023E0012240213046FDF7D8FE0A2001F043
:104B900087FC002240213046FDF7D0FE0A2001F0BC
:104BA0007FFC012240213046FDF7C8FE49463046D1
:104BB000FDF7B8FE18B1BDF800002043C4B2BDF83F
:104BC000001008EA4100ADF80000BDF80000FF2821
:104BD000D7D99DF808003C54102001F061FC9DF8E5
:104BE0000800401C8DF808009DF808000828C0D374
:104BF00003B03046BDE8F04301228021FDF79EBEA0
:104C0000001001402400002070B5624C0122802178
:104C10002046FDF793FE012240212046FDF78EFE3F
:104C20000122150229462046FDF788FE00F0B4F85F
:104C300000F0B2F800F0B0F8002280212046FDF725
:104C40007DFE102001F02CFC0120FFF72FFF4320F8
:104C5000FFF72CFF0020FFF729FF0120FFF726FFB9
:104C60000020FFF723FF0020FFF720FF0020FFF7C1
:104C70001DFF0020FFF71AFF0020FFF717FF01229A
:104C800080212046FDF75AFE102001F009FC002289
:104C900080212046FDF752FE0120FFF707FF442048
:104CA000FFF704FF0020FFF701FF0120FFF7FEFEE2
:104CB000EE20FFF7FBFE0020FFF7F8FE0020FFF7D5
:104CC000F5FE0020FFF7F2FE0020FFF7EFFE0122C5
:104CD00080212046FDF732FE102001F0E1FB00228A
:104CE00080212046FDF72AFE102001F0D9FB01208B
:104CF000FFF7DCFE4D20FFF7D9FE0020FFF7D6FEC0
:104D00000020FFF7D3FE0120FFF7D0FE0122802113
:104D10002046FDF713FE102001F0C2FB0022802187
:104D20002046FDF70BFE102001F0BAFB0120FFF733
:104D3000BDFE4320FFF7BAFE0020FFF7B7FE0020BC
:104D4000FFF7B4FE5A20FFF7B1FE5A20FFF7AEFE80
:104D50005A20FFF7ABFE5A20FFF7A8FE5A20FFF7B4
:104D6000A5FE012280212046FDF7E8FD102001F07C
:104D700097FB012280212046FDF7E0FD0122402122
:104D80002046FDF7DBFD29462046BDE870400122A4
:104D9000FDF7D4BD0010014010B5114C0022802158
:104DA0002046FDF7CBFD102001F07AFB0120FFF734
:104DB0007DFE4220FFF77AFE0020FFF777FE0020FD
:104DC000FFF774FE0020FFF771FE012280212046CC
:104DD000FDF7B4FDBDE81040102001F061BB0000FC
:104DE000001001407047FBF74FBC00000748418AA4
:104DF000C82901D300214182802101700449054B5B
:104E00000A78418A5A54491C418270475000002058
:104E1000440000200418002070B50D4605490C68B8
:104E200005E001462A46204600F026F86469002C79
:104E3000F7D170BDF40000202DE9F0410D4E0F4672
:104E4000044618213568FBF786F967804FF4FA406D
:104E5000A0810021E181A08005E0A54202D10020CF
:104E6000BDE8F0816D69002DF7D1306860610120E7
:104E70003460F5E7F40000202DE9F04794B00546D2
:104E800001700F460220A91CCDE90910CDE90B10D5
:104E900000243221CDE9064101260894CDE902041F
:104EA000CDE904460190A87890460090022322465E
:104EB00031460DA801F018FB07EB470108EBC100D4
:104EC000791C8FB218220DA9FBF72CF9291DCDE909
:104ED0000A414FF0080A05A84FF00A09CDF830A0A2
:104EE000099480E850020894019402940394049475
:104EF000A878009002230022FF210DA801F0F4FA07
:104F000007EB470108EBC1007F1CBFB218220DA9B7
:104F1000FBF708F9CDE90AA405A80C9480E8500233
:104F200005F10C01CDE90841CDE902460194049652
:104F3000A87800900223002201210DA801F0D4FAE4
:104F400007EB470108EBC1007F1CBCB218220DA97A
:104F5000FBF7E8F814B02046BDE8F08780884CF2F3
:104F6000801101EB500000B2704700224900C2815D
:104F700001F5FA418181704770B50D4605490C680D
:104F800005E001462A46204600F0CEF8646A002C6F
:104F9000F7D170BDFC0000202DE9F0410A4E0F460C
:104FA000044628213568FBF7D6F8A77005E0A5422E
:104FB00002D10020BDE8F0816D6A002DF7D1306884
:104FC000606201203460F5E7FC0000202DE9F05F0D
:104FD0008A469E4693460446DDE91110DDE90F320C
:104FE000DDE90D75DDE90B96BAF5FA7F02D24FF0D7
:104FF000000C03E040F6C41CE24500D9E246BBF1D8
:10500000140F02D24FF0140C03E047F2305CE3457A
:1050100000D9E346BEF5FA7F02D24FF0000C03E060
:1050200040F6C41CE64500D9E646DDF828C0BCF1D0
:10503000140F02D24FF0140C04E0E04647F2305C4B
:10504000E04501D9CDF828C0A4F80AA0A4F80CB016
:10505000A4F80EE0DDF828C04FF4FA7AA4F810C0E6
:10506000D14502D24FF0000C03E040F6C41CE145EC
:1050700000D9E146142E01D2142604E047F2305C38
:10508000664500D96646D046474501D2002704E070
:1050900040F6C41C674500D96746142D01D214257B
:1050A00004E047F2305C654500D96546A4F81290EB
:1050B000A682E7822583434501D2002304E040F61F
:1050C000C415AB4200D92B46142A01D2142204E0A5
:1050D00047F23055AA4200D92A46514501D2002153
:1050E00004E040F6C415A94200D92946142801D28B
:1050F000142004E047F23055A84200D928466383C3
:10510000A283E18320842078401CC0B2FBF734FCEA
:105110002078801CC0B2FBF72FFC2078BDE8F05F40
:10512000C01CC0B2FBF728BC2DE9F04794B0044680
:1051300000F8011B0826CDE9090600250127CDE965
:105140000575CDE90B0605204FF00A0A0190CDE95F
:1051500007A5CDE902070495A078914688460090FE
:1051600004232A4639460DA801F0BEF908EB480190
:1051700009EBC10008F101011FFA81F818220DA9FD
:10518000FAF7D0FF04F10A00CDE90906CDE905756B
:10519000CDE90B0602200190CDE907A5CDE9020774
:1051A0000495A07800900423002201210DA801F0AD
:1051B0009BF908EB480109EBC10308F101001FFA54
:1051C00080F818220DA91846FAF7ACFF04F1120076
:1051D000CDE90906CDE90575CDE90B06032001905F
:1051E000CDE907A5CDE902070495A0780090042336
:1051F000002201210DA801F077F908EB480109EB25
:10520000C10308F101001FFA80F818220DA9184601
:10521000FAF788FF04F11A00CDE90906CDE9057512
:10522000CDE90B0604200190CDE907A5CDE90207E1
:105230000495A07800900423002201210DA801F01C
:1052400053F908EB480109EBC10308F1010084B2EE
:1052500018220DA91846FAF765FF14B02046BDE8DC
:10526000F08770B585780024049E022D02D0012DB0
:1052700002D004E00AB902E00BB1012405E00225E6
:105280008573C1800281438186810078801CC0B211
:10529000FBF772FB204670BD2DE9F0410A4E0F4628
:1052A000044614213568FAF756FF677005E0A542F9
:1052B00002D10020BDE8F0812D69002DF7D13068C2
:1052C000206101203460F5E7000100202DE9F04362
:1052D00093B0054600F8011B0126CDE90906CDE98A
:1052E0000B060024CDE905644FF00A0901960296E9
:1052F000CDE90794CDE90364687890460F460090A5
:105300000523224631460DA801F0EEF807EB4701D0
:1053100008EBC100791C8FB218220DA9FAF702FF21
:10532000A81CCDE90A4004210C9105A8099480E845
:1053300050020894019402940394049468780090B5
:1053400005230022FF210DA801F0CEF807EB47014D
:1053500008EBC1007F1CBFB218220DA9FAF7E2FECC
:1053600008220A9205F10E00CDE90B06CDF81C903B
:10537000CDE90564A91DCDE90841CDE902460194B6
:105380000494687800900523002201210DA801F003
:10539000ABF807EB470108EBC1007F1CBCB2182239
:1053A0000DA9FAF7BFFE13B02046BDE8F083000058
:1053B00070B50D4605490C6805E001462A462046B1
:1053C000FFF784FF2469002CF7D170BD0001002095
:1053D00010B5021D0A60002181700078FBF7CCFA3D
:1053E000082010BD007B704770B50D4605490C685C
:1053F00005E001462A46204600F02CF82469002CDE
:10540000F7D170BDF8000020022181700078FBF711
:10541000B3BA00002DE9F0410C4E0F469046044609
:1054200014213568FAF797FEE77084F80C8005E0E0
:10543000A54202D10020BDE8F0812D69002DF7D1F1
:105440003068206101203460F5E70000F80000209A
:10545000407B70472DE9F04393B005460F4600F8B6
:10546000021B02210024CDE909010126CDE90564D2
:105470004FF00A09CDE90794CDE90246019404945E
:10548000CDE90B01E878904600900323224631468F
:105490000DA801F029F807EB470108EBC1007F1CBC
:1054A000BFB218220DA9FAF73DFE05F10C00CDE9B7
:1054B0000A4004210C9105A8099480E85002089440
:1054C0000194029403940494E8780090032300224A
:1054D000FF210DA801F008F807EB470108EBC10018
:1054E0007F1CBFB218220DA9FAF71CFE281DCDE9BA
:1054F0000A4008210C9105A8099480E850020894FC
:10550000CDE9026401960494E87800900323002218
:10551000FF210DA800F0E8FF07EB470108EBC100F1
:105520007F1CBCB218220DA9FAF7FCFD13B020466F
:10553000BDE8F08338B50B46009204460022802176
:1055400000F070F9002804D0606D40F02000606524
:10555000032038BD10B5084C002201212046FDF77C
:10556000EDF9062000F0A2FE20460122BDE8104021
:105570001146FDF7E3B90000000C014070B50403CB
:10558000FFF7E8FF00F0A8F80E4D002201212846A1
:10559000FDF7D4F9202000F089FEC4F3074000F0A5
:1055A00085FEC4F3072000F081FEE0B200F07EFE2D
:1055B000012211462846FDF7C1F9BDE8704000F010
:1055C0008BB80000000C014010B50D4C00220121E9
:1055D0002046FDF7B3F90A20FDF7A2F80122114693
:1055E0002046FDF7ABF90A20FDF79AF800F036F8EF
:1055F000A0F56F41143901D0012010BD002010BD6D
:10560000000C01402DE9F041134F15460C460646AB
:10561000002201213846FDF791F9032000F046FEF3
:10562000C4F3074000F042FEC4F3072000F03EFE42
:10563000E0B200F03BFE002405E0FF2000F036FE63
:105640003055641CA4B2AC42F7D33846BDE8F041F3
:1056500001221146FDF772B9000C014070B5114DE1
:105660000024224601212846FDF768F9902000F029
:105670001DFE002000F01AFE002000F017FE0020A2
:1056800000F014FEFF2000F011FE44EA0024FF2089
:1056900000F00CFE0443012211462846FDF74EF9A6
:1056A000204670BD000C014070B50A4D002201215A
:1056B0002846FDF743F9052000F0F8FDFF2000F033
:1056C000F5FD0446012211462846FDF737F920462C
:1056D00070BD0000000C01402DE91040FFF7E4FF11
:1056E000C007FBD110BD00002DE9F05FC1F30B0630
:1056F0000F0BC6F58054884682461546A24200D854
:105700001446DFF87C9039038B464FF480521C48D6
:10571000FFF778FF002006E0321819F80210FF2981
:1057200003D1401C80B2A042F6D3A04222D2384618
:10573000FFF724FF00204A4606E000BF1AF80010D9
:105740008319401CD15480B2A042F7D359464FF47C
:1057500080520B4800F016F8A5420FD0281BA24437
:10576000A044002685B24FF480547F1CA542CAD8BD
:105770002C46C8E7224641465046EBE7BDE8F09F7D
:10578000F80700202DE9F0410746C8B2C0F5807443
:105790000E461546A24200D814464FF480782246A1
:1057A0003146384600F00EF8A54208D0281B2744A1
:1057B000264485B24446A542F1D82C46EFE7BDE821
:1057C000F08100002DE9F04115460C460646FFF732
:1057D000C1FE134F002201213846FDF7AFF8022029
:1057E00000F064FDC4F3074000F060FDC4F307203F
:1057F00000F05CFDE0B200F059FD002404E0305DF3
:1058000000F054FD641CA4B2AC42F8D3012211464E
:105810003846FDF793F8BDE8F041FFF75DBF0000A3
:10582000000C01402DE9F0411D4617460E46044686
:10583000DDF8188008E0681C06D0FDF785F8A0EBBD
:105840000800A8420BD255B12068806836EA0000F3
:1058500030D00020B842EED10020BDE8F0812068B1
:10586000416821F0E00141606068B0F5827F0BD1B2
:10587000A068B0F5004F02D0B0F5806F04D1206869
:10588000016821F040010160A06AB0F5005F09D114
:105890002068016821F4005101602068016841F42A
:1058A00000510160012084F85100002084F850006C
:1058B0000320D2E70120CDE710B57F4C0122022161
:1058C0002046FDF73BF80120FCF72AFF00220221C9
:1058D0002046FDF733F80A20FCF722FF01220221BF
:1058E0002046FDF72BF81420FCF71AFF1120FEF7D5
:1058F00091FE3220FCF714FFB120FEF78BFE05204D
:10590000FEF7A2FE3C20FEF79FFE3C20FEF79CFE29
:10591000B220FEF77FFE0520FEF796FE3C20FEF744
:1059200093FE3C20FEF790FEB320FEF773FE0520A9
:10593000FEF78AFE3C20FEF787FE3C20FEF784FE41
:105940000520FEF781FE3C20FEF77EFE3C20FEF7A0
:105950007BFEB420FEF75EFE0320FEF775FEC0203E
:10596000FEF758FE2820FEF76FFE0820FEF76CFEBB
:105970000420FEF769FEC120FEF74CFEC020FEF7B2
:1059800063FEC220FEF746FE0D20FEF75DFE0020FE
:10599000FEF75AFEC320FEF73DFE8D20FEF754FEB3
:1059A0002A20FEF751FEC420FEF734FE8D20FEF7BC
:1059B0004BFEEE20FEF748FEC520FEF72BFE1A2018
:1059C000FEF742FE3620FEF725FE7920FEF73CFE6C
:1059D000E020FEF71FFE0420FEF736FE2220FEF731
:1059E00033FE0720FEF730FE0A20FEF72DFE2E20A4
:1059F000FEF72AFE3020FEF727FE2520FEF724FEC4
:105A00002A20FEF721FE2820FEF71EFE2620FEF7A4
:105A10001BFE2E20FEF718FE3A20FEF715FE002092
:105A2000FEF712FE0120FEF70FFE0320FEF70CFE2C
:105A30001320FEF709FEE120FEF7ECFD0420FEF73F
:105A400003FE1620FEF700FE0620FEF7FDFD0D20EA
:105A5000FEF7FAFD2D20FEF7F7FD2620FEF7F4FDF8
:105A60002320FEF7F1FD2720FEF7EEFD2720FEF7AD
:105A7000EBFD2520FEF7E8FD2D20FEF7E5FD3B20A0
:105A8000FEF7E2FD0020FEF7DFFD0120FEF7DCFD62
:105A90000420FEF7D9FD1320FEF7D6FD3A20FEF7CD
:105AA000B9FD0520FEF7D0FD2920FEF7B3FDBDE8C6
:105AB00010400020FEF732BB000C0140704738B5A3
:105AC00003690446C3B100222078042100F00F00CE
:105AD0000090A068FAF71EFF00280CD12088C0F3C0
